:10040E0050617373776F72643A004F4B2000455200
:06041E0052002020200026
:1001600012044E7BFF7A04790E7D017F011203B0E9
:10017000E4F518F519F51AF51B1200038F1CE51CA0
:1001800060F7D3940A5042C3E5199404E51894002B
:1001900050E7AE1AAF1B7C007D0A12026B8E1A8FDD
:1001A0001BE51C75F00A84E5F0251BF51BE4351AE8
:1001B000F51A750C04AB1BFA7D017F021203F105E1
:1001C00019E51970B4051880B0E51C640B7040E5A2
:1001D0001BB42922E51AB4091D7BFF7A0479187D26
:1001E0000E7F011203B0750C04AB1BAA1A7D017FB0
:1001F000021203F1800D7BFF7A04791C7D0E7F01D2
:100200001203B0E4F51AF51BF518F519020179E5AA
:100210001C640C6003020179F51AF51BF518F51939
:10022000750C04AB1BAA1A7D017F021203F17BFF40
:0E0230007A0479207D0E7F011203B00201795D
:10043A00EF4E600F7D027CEFDCFEDDFCEF1F70F0FB
:03044A001E80ED24
:01044D00228C
:06046200C2A58F80D2A7A5
:080468007F027EEFDEFEDFFCE7
:010470002269
:0A047D00C2A6120462C2A7020468BE
:1003D300CFCDCFCECCCE12027D7C007D0A12027D22
:0403E300ED2430FFD6
:0A03E700D2A6120462C2A702046845
:10042400AE07BE0104ED148006BE0209ED243F446C
:0604340080FF12047D228E
:10044E007F3812047D7F0C12047D7F0612047D7F9F
:04045E000102047D16
:0A048700AC03120424AF040203E7E3
:0603B0008B088A09890A8E
:1003B600120424E4FDAB08AA09A90A8D82758300FC
:0C03C60012023EFF60061203E70D80E902
:0103D2002208
:0C037D007F0AEA24FFFDE434FFFC7E0050
:080389008E0D8F0E8C0F8D10FC
:100391007F017E00E4FBEBC39510E50F6480F874E8
:0E03A1008098500AAC0DAD0E12026B0B80E876
:0103AF00222B
:0403F1008A0A8B0BDE
:1003F500120424AA0CEAD39400400D12037DAC0A22
:08040500AD0B1203D31A80EDC8
:01040D0022CC
:1002D200120424C3EA64809480400B7F2B1203E74C
:1002E2008A168B17800E7F2D1203E7C3E49BF51746
:1002F200E49AF516AA15EAD39400400D12037DACD8
:0903020016AD171203D31A80EDA9
:01030B0022CF
:04030C008A1F8B2099
:10031000120424AA21EAD3940040297F1012037FFB
:10032000AC1FAD20CFCDCFCECCCE12027DEF540F7F
:10033000FEC3940AEE5004243080022437FF1203D7
:04034000E71A80D167
:010344002296
:040345008A248B2556
:10034900120424AA26EAD394004028EA24FFFDE4F3
:1003590034FFFC7F027E00120389AC24AD25CFCD8A
:10036900CFCECCCE12027DEF54012430FF1203E729
:030379001A80D215
:01037C00225E
:10000300E4F5087590FFC2932097147F14FE8007D0
:100013002097097F147E0012043A80F475080120AA
:10002300961180032096097F147E0012043A80F40F
:1000330075080520951180032095097F147E001211
:10004300043A80F475080920941180032094097FF1
:10005300147E0012043A80F475080D7590FFC29265
:1000630020971180032097097F147E0012043A80A1
:10007300F475080220961180032096097F147E00F0
:1000830012043A80F475080620951180032095091F
:100093007F147E0012043A80F475080A20941180BC
:1000A300032094097F147E0012043A80F475080E2D
:1000B3007590FFC29120971180032097097F147ECA
:1000C3000012043A80F475080320961180032096E9
:1000D300097F147E0012043A80F4750807209511F5
:1000E30080032095097F147E0012043A80F475087A
:1000F3000B20941180032094097F147E0012043A8C
:1001030080F475080F7590FFC2902097118003202B
:1001130097097F147E0012043A80F4750804209630
:100123001180032096097F147E0012043A80F4752F
:10013300080820951180032095097F147E0012047E
:100143003A80F475080C20941180032094097F14DD
:0C0153007E0012043A80F4750810AF081A
:01015F00227D
:0300000002047186
:0C047100787FE4F6D8FD7581260201605A
:10023E00BB010CE58229F582E5833AF583E0225075
:10024E0006E92582F8E622BBFE06E92582F8E222BF
:0D025E00E58229F582E5833AF583E49322D9
:10026B00EF8DF0A4A8F0CF8CF0A428CE8DF0A42EA7
:02027B00FE2261
:10027D00BC000BBE0029EF8DF084FFADF022E4CC65
:10028D00F875F008EF2FFFEE33FEEC33FCEE9DEC2E
:10029D00984005FCEE9DFE0FD5F0E9E4CEFD22ED74
:1002AD00F8F5F0EE8420D21CFEADF075F008EF2FBE
:1002BD00FFED33FD4007985006D5F0F222C398FDAF
:0502CD000FD5F0EA224C
:00000001FF
