:020000040800F2
:10000000E84D0020310200083712000847110008AF
:1000100035120008870600083113000800000000B0
:10002000000000000000000000000000990100082E
:100030008906000800000000DD01000839120008F0
:100040004B0200084B0200084B0200084B0200085C
:100050004B0200084B0200084B0200084B0200084C
:100060004B0200084B0200084B0200084B0200083C
:100070004B0200084B0200084B0200084B0200082C
:100080004B0200084B0200084B0200084B0200081C
:100090004B0200084B0200084B0200084B0200080C
:1000A0004B0200084B0200084B0200084B020008FC
:1000B0004B020008AD1200084B0200084B0200087A
:1000C0004B0200084B0200084B0200084B020008DC
:1000D0004B0200084B0200084B0200084B020008CC
:1000E0008B0600084B0200084B02000800F002F8E3
:1000F00000F042F80AA090E8000C82448344AAF180
:100100000107DA4501D100F037F8AFF2090EBAE87D
:100110000F0013F0010F18BFFB1A43F0010318473B
:100120001821000038210000103A24BF78C878C197
:10013000FAD8520724BF30C830C144BF04680C60ED
:10014000704700000023002400250026103A28BF35
:1001500078C1FBD8520728BF30C148BF0B60704739
:10016000752900F0F780632900F04782002070476E
:100170001FB51FBD10B510BD00F04BFA1146FFF7BB
:10018000F7FF01F031F900F069FA03B4FFF7F2FF6D
:1001900003BC00F071FA0000224B19680868B0E84F
:1001A000F00F80F30988BFF36F8F4FF0000080F3EA
:1001B00011884EF00D0E70470000000006480068E0
:1001C000006880F3088862B661B6BFF34F8FBFF353
:1001D0006F8F00DF00BF00BF08ED00E0EFF3098084
:1001E000BFF36F8F0F4B1A6820E9F00F106008B54E
:1001F0004FF0BF0080F31188BFF34F8FBFF36F8FB5
:1002000001F05AFE4FF0000080F31188BDE808406D
:1002100019680868B0E8F00F80F30988BFF36F8FA2
:10022000704700BF20000020EFF3058070470000FA
:100230000948804709480047FEE7FEE7FEE7FEE77A
:10024000FEE7FEE7FEE7FEE7FEE7FEE704480549B6
:10025000054A064B70470000AB120008ED0000088D
:10026000E8470020E84D0020E8490020E849002048
:100270000FB41CB5074B06AA7B446946009005984D
:1002800000F099F90020694600F0A8F91CBC5DF85F
:1002900014FB0000610300002DE9F0410E46044606
:1002A000002020622046E168884730B3252805D029
:1002B000D4E901219047206A401CF2E7E16820461A
:1002C00000278847050018D0A5F14100192802D859
:1002D00020354FF400673246294620462760FFF755
:1002E0003FFF40B1012804D0F61D26F0070608366E
:1002F000D8E7361DD6E72846DAE7206ABDE8F08160
:1003000070B50C460546012A05D02878800600D530
:10031000EA69002302E0012305E05B1C934202D25C
:10032000E05C0028F9D1A869E618C01AA861286A1B
:10033000184428622846AFF3008004E0D5E9012183
:1003400014F8010B9047B442F8D32846AFF300806D
:1003500070BD00002DE9F0410646002410687529A3
:10036000314616A510D0AFF30080002802DA4042D3
:1003700013A507E031688A0701D512A502E04907F5
:1003800004D511A5012401E0AFF3008000210A2269
:1003900006F1240709E0B0FBF2FCB0FBF2F302FB2C
:1003A0001C00303078541846491C0028F3D12346ED
:1003B0002A463046BDE8F04100F09FB8000000003A
:1003C0002D0000002B0000002000000040EA010387
:1003D000024630B59B0710D14FF0013400E008C24F
:1003E00008C91D1B9D4315EAC41FF8D013F0FF0177
:1003F00002F8011B0DD01B0AF8E711F8013B002B96
:1004000002F8013B05D011F8013B002B02F8013B3B
:10041000F3D130BD10B5431C02E010F8011B71B1DF
:100420008107FAD14FF0013202C88C1A8C4314EACA
:10043000C211F9D0C01A0A0603D0C01E10BDC01ADE
:1004400010BD0A0401D0801E10BD0902FCD0401E60
:1004500010BD02F0FF0343EA032242EA024200F029
:1004600002B84FF000020429C0F0128010F0030C13
:1004700000F01B80CCF1040CBCF1020F18BF00F897
:10048000012BA8BF20F8022BA1EB0C0100F00DB846
:100490005FEAC17C24BF00F8012B00F8012B48BFA4
:1004A00000F8012B70474FF0000200B51346944648
:1004B0009646203922BFA0E80C50A0E80C50B1F1BC
:1004C0002001BFF4F7AF090728BFA0E80C5048BFD0
:1004D0000CC05DF804EB890028BF40F8042B08BF6E
:1004E000704748BF20F8022B11F0804F18BF00F86A
:1004F000012B70477047704770472DE9F0470D4654
:1005000099469246044600F124080168880604D5FD
:10051000E06921F01001216000E00120A84201DD26
:10052000471B00E00027A1697A1902EB0900081AAD
:10053000A0612078C00602D42046AFF300800026D8
:1005400008E0D4E901211AF806009047206A401C0F
:10055000761C20624E45F4DB2078C0060AD5204682
:10056000AFF3008006E0D4E9012130209047206AF3
:10057000401C2062381EA7F10107F4DC07E0D4E933
:10058000012118F805009047206A401C2062281EAF
:10059000A5F10105F3DC2046AFF3008020780006CA
:1005A00002D50220BDE8F0870120FBE701694A1C63
:1005B00002610878704700B58FB0CDE901310021A4
:1005C000059105497944CDE9031011466846FFF7C6
:1005D00063FE0FB000BD0000E5FFFFFF0A6802F8F0
:1005E000010B0A60704710B5436913B1AFF3008087
:1005F00001E0FFF785FE012010BD127800F1240113
:100600000A7000224A700122EDE711684FF0FF32B4
:10061000E9E7754600F02CF8AE46050069465346FA
:1006200020F00700854618B020B5FFF70FFEBDE8A3
:1006300020404FF000064FF000074FF000084FF049
:10064000000B21F00701AC46ACE8C009ACE8C009DA
:10065000ACE8C009ACE8C0098D46704710B5044647
:10066000AFF300802046BDE81040FFF78EBD0000CC
:10067000004870478447002001491820ABBEFEE7C0
:10068000260002007047FEE77047704770B50446C9
:1006900000F010F90546601C02D0044800780444BC
:1006A00000F008F9401BA042FAD370BD10000020F2
:1006B0002DE9F84FDFF8B8910024A9F1040B234687
:1006C0000F2709F1040AABF1040EC9E00125A5408A
:1006D0002A40AA427DD1674ED1F804C0ACEB06088F
:1006E000B44532D014DCBCF1030F3AD009DCBCF1C4
:1006F000000F2AD0BCF1010F1CD0BCF1020F31D188
:100700001DE0BCF1110F17D0BCF1120F2AD119E076
:10071000B8F5881F19D006DCB8F5803F15D0B8F5BC
:10072000801F1FD111E0B8F5001F0ED0B8F5041FCF
:1007300018D10AE0CB6815E0CB681B1D12E0CB682E
:1007400008330FE0CB680C330CE08B682BB1012B26
:100750004FF0080303D0456104E0042302E0056183
:1007600000E00023FF2A01D8064601E000F104065C
:100770004FEA840501D9A5F12005D6F8008007FAD3
:1007800005FC28EA0C0803FA05F548EA0508C6F84E
:1007900000804D68ED0062D5374DAE6946F0010628
:1007A000AE61AD6924F0030605F001050095334DF7
:1007B00006EB050CDCF80850A607360F07FA06F81A
:1007C00025EA0805DFF8B880404503D14FF000085E
:1007D00017E044E0DFF8AC80404502D14FF001085B
:1007E0000FE0DFF8A480404502D14FF0020808E096
:1007F000DFF89880404502D14FF0030801E04FF048
:10080000040808FA06F848EA0508CCF808804D689C
:10081000D9F80060ED024D4601D5164300E096433D
:100820002E604D68DAF80060AD02554601D51643DA
:1008300000E096432E604D68DBF80060AD035D4636
:1008400001D5164300E096432E604D68DEF8006047
:10085000ED03754601D5164300E096432E60641CF7
:100860000D682A46E5407FF431AFBDE8F88F0000FF
:100870000804014000001110001002400000014077
:1008800000080140000C014000100140001401402C
:100890008068084000D001207047C26821EA020346
:1008A0000A4043EA0241016170470AB101617047A1
:1008B0000904FBE701488068704700001000002031
:1008C000024881680278114481607047100000205E
:1008D000074810B5016841F010010160032000F0E5
:1008E000A1F8012000F006F800F050F8002010BD3B
:1008F0000020024030B505461F4887B0C16941F06D
:100900000201C161C06906A900F00200009001A8BF
:1009100000F030F90498B0B100F04CF940001749EC
:10092000174AB0FBF1F11748491E0260416040F2DE
:10093000E7320021C0E903218160816100F002FB00
:10094000040003D015E000F035F9E8E70D4800F0A9
:1009500027FB04000DD11D2000F036F8102D07D222
:10096000002229461D2000F03DF80748056000E000
:10097000012407B0204630BD0010024040420F0065
:100980000004004080000020140000200C4808B53E
:10099000816941F001018161816901F001010091EA
:1009A000C16941F08051C161C06900F08050009080
:1009B0000448416821F0E06141F00071416008BDE8
:1009C0000010024000000140002809DB00F01F0277
:1009D000012191404009800000F1E020C0F80011A1
:1009E00070470000F0B40E4B1B680C46C3F30223A3
:1009F000C3F10705042D00D90425191D072901D2CB
:100A0000002300E0DB1E012606FA05F1491E214005
:100A100099409E40761E16403143F0BC00F089BCE0
:100A20000CED00E0064900F0070208684FF6FF03EE
:100A3000184040EA0220034A104308607047000053
:100A40000CED00E00000FA052DE9F0470F46050027
:100A500061D0434E306800F00700B84209D23068D8
:100A600020F0070038433060306800F00700B842DB
:100A700051D128683B4C810712D5400703D56068E7
:100A800040F4E06060602878000703D5606840F4B7
:100A9000605060606068A96820F0F0000843606002
:100AA0002878C00728D06868012810D0216802285B
:100AB00010D0890700292EDA616821F00301014373
:100AC0006160FFF7F7FE804641F288390DE021684A
:100AD0008903EFE78901EDE7FFF7ECFEA0EB0801E2
:100AE000494502D90320BDE8F0876068696800F0D5
:100AF0000C00B0EB810FEFD1306800F00700B84276
:100B00000BD9306820F0070038433060306800F0BF
:100B10000700B84201D00120E5E72878400705D555
:100B20006068E96820F4E0600843606028780007A6
:100B300006D56068296920F4605040EAC100606011
:100B400000F048F86168084AC1F30311515CC840DD
:100B50000649086006480068FFF7CCFE0020C2E79F
:100B600000200240001002401E2200081C0000204D
:100B7000140000200F2202600C4A536803F00303A4
:100B80004360536803F0F0038360536803F4E06349
:100B9000C36052684FF4E06303EAD2020261044882
:100BA000006800F007000860704700000010024075
:100BB000002002400448054900684968044AC1F31E
:100BC0000221515CC84070471C0000200010024008
:100BD0002E2200080E4A51680E4801F00C03042B27
:100BE00011D0082B0FD10C48C1F38343C903C05C5B
:100BF0000AD55168084AC1F34041921E515C054A2A
:100C00005043B0FBF1F0704704494843704700007F
:100C10000010024000127A000E22000800093D0078
:100C20002DE9F84F040070D02078C04DC00749D09E
:100C30006868C0F38100012807D06868C0F38100AC
:100C4000022809D16868C00306D52868800339D511
:100C500060680028E7D035E06068B0F5803F0BD0D1
:100C600010B1B0F5A02F11D0286820F48030286092
:100C7000286820F4802002E0286840F48030286052
:100C8000606890B1FFF716FE06460AE0286840F457
:100C900080202860F0E700BFFFF70CFE801B64286F
:100CA00073D828688003F7D50CE0FFF703FE0646EB
:100CB00005E000BFFFF7FEFD801B6428F0D8286820
:100CC0008003F7D420789A4E80074FF001094FF047
:100CD000000839D5686810F00C0F07D06868C0F3B9
:100CE0008100022809D16868C00306D428688007FB
:100CF00014D52069012808D110E02069B0B1C6F8E8
:100D00000090FFF7D7FD074605E00AE1FFF7D2FDA7
:100D1000C01B0228C4D828688007F7D528686169F5
:100D200020F0F80040EAC10028600DE0C6F800801D
:100D3000FFF7C0FD074604E0FFF7BCFDC01B02281B
:100D400023D828688007F7D4207800072CD5794865
:100D5000A169D9B1C0F80090FFF7ACFD074604E0E7
:100D6000FFF7A8FDC01B02280FD8686A8007F7D5D7
:100D700071484FF4FA510068B0FBF1F0009000BFE9
:100D80000098411E0091FAD20EE080E0C0F8008089
:100D9000FFF790FD074604E0FFF78CFDC01B02281B
:100DA00075D8686A8007F7D42078400760D5E8696D
:100DB0000027C00008D4E86940F08050E861E86985
:100DC000012700F0805000905C480168C90513D4E9
:100DD0000168834641F480710160FFF76BFD824634
:100DE00006E000BFFFF766FDA0EB0A0064284ED8BE
:100DF000DBF80000C005F5D5E06801280AD008B18D
:100E0000052813D0286A20F001002862286A20F003
:100E1000040002E0286A40F001002862E06841F224
:100E2000883B98B1FFF746FD82460BE0286A40F008
:100E300004002862EEE700BFFFF73CFDA0EB0A01CB
:100E400059455AD8286A8007F6D50CE0FFF732FDDD
:100E5000824605E0FFF72EFDA0EB0A0159454CD86C
:100E6000286A8007F6D41FB1E86920F08050E86155
:100E7000E06988B36968C1F38101022944D002287E
:100E8000C6F8608004D0FFF715FD044638E034E072
:100E9000FFF710FD074604E0FFF70CFDC01B02281A
:100EA0002BD828688001F7D4206AB0F5803F05D19F
:100EB0006868A16820F4003008436860D4E908013C
:100EC0000843696821F4741108436860C6F86090AB
:100ED000FFF7F0FC044606E025E000BFFFF7EAFC60
:100EE000001B022809D828688001F7D51BE000BF45
:100EF000FFF7E0FC001B022802D90320BDE8F88FB1
:100F000028688001F4D40EE00128F7D06868226ACE
:100F100000F48031914204D1616A00F4701088427B
:100F200001D00120EAE70020E8E7000000100240BD
:100F300000004242800442421C0000200070004039
:100F40007047704710B5040003D094F83D0010B10D
:100F500007E0012010BD002084F83C00204600F08E
:100F60001EF8022084F83D00211D206800F0A4F93D
:100F7000012084F8460084F83E0084F83F0084F89D
:100F8000400084F8410084F8420084F8430084F86B
:100F9000440084F8450084F83D00002010BD7047EF
:100FA00090F83D10012901D001207047022180F8FE
:100FB0003D100168CA6842F00102CA6000680B492E
:100FC000884208D0B0F1804F05D00949884202D04C
:100FD0000849884204D1816801F00701062903D03D
:100FE000016841F00101016000207047002C0140C0
:100FF000000400400008004070472DE9F04104461D
:101000000068C66805694FF00007A90713D5B10746
:1010100011D5F91E016101202077206880698007C1
:10102000204602D0FFF7E8FF04E000F07EF82046FB
:1010300000F07CF82777680716D5700714D521686B
:101040006FF004000861022020772068806910F4A6
:10105000407F204602D0FFF7CFFF04E000F065F8A4
:10106000204600F063F82777280715D5300713D5F9
:1010700021686FF008000861042020772068C069AB
:101080008007204602D0FFF7B7FF04E000F04DF8DC
:10109000204600F04BF82777E80616D5F00614D561
:1010A00021686FF010000861082020772068C0696F
:1010B00010F4407F204602D0FFF79EFF04E000F0CE
:1010C00034F8204600F032F82777E80708D0F00718
:1010D00006D021686FF001000861204600F028F872
:1010E000280608D5300606D521686FF08000086113
:1010F0002046FFF725FF680608D5700606D521684B
:101100006FF040000861204600F01CF8A8060AD5E0
:10111000B00608D521686FF0200008612046BDE8C0
:10112000F041FFF70EBFBDE8F08170477047000047
:1011300000680349884201D1FFF7C2BB7047000035
:10114000000400407047FEE770B50E4D02212846AE
:10115000FFF79EFBEE1420B131462846FFF798FBBF
:1011600070B90A20FFF792FA02212846FFF790FB98
:1011700000B9012431462846FFF78AFB00B9022452
:10118000204670BD000C014001460148FFF785BBB9
:1011900000080140F0B585B0002423480094019474
:1011A00002940394816941F010018161816901F029
:1011B00010010491816941F020018161816901F090
:1011C00020010491816941F004018161816901F08C
:1011D00004010491816941F0080181618069134E25
:1011E00000F008000490002203213046FFF75DFB69
:1011F00003210125CDE90015CDE9024169463046BC
:10120000FFF756FA0A4F45F60206012231463846E4
:10121000FFF74BFB009669463846CDE90145FFF7DD
:1012200047FA05B0F0BD0000001002400008014080
:10123000000C0140FEE7FEE710B500F0BBFE012800
:1012400003D0BDE8104000F071BE10BD30B58FB0C6
:1012500028216846FFF727F914210AA8FFF723F988
:1012600001210804CDE90010002402940225049114
:10127000CDE907504FF4E01009906846FFF7D0FC25
:1012800008B172B6FEE70F20CDE90A054FF4806081
:10129000CDE90C4002210AA80E94FFF7D5FB0028E7
:1012A00001D072B6FEE70FB030BD70470148FFF7BE
:1012B000A4BE000080000020F0B50268194B1A4C53
:1012C0001A4D4FF08047984205D0B84203D0A04253
:1012D00001D0A84203D122F070064A6832439842F6
:1012E00005D0B84203D0A04201D0A84203D122F4D5
:1012F0004074CA6822434C6922F080022243026093
:101300008A68C2620A688262984201D109690163EF
:10131000012141610169C90703D0016921F001017F
:101320000161F0BD002C01400004004000080040B5
:10133000FEE70907090E002804DB00F1E02080F831
:101340000014704700F00F0000F1E02080F8141D39
:10135000704700002DE9F041144E04463068844285
:1013600002D10020BDE8F08100F08AFB6569B76B0F
:10137000F66B00F093FBBD4201D0B54201D10220D3
:10138000F0E70B48854208D1A06A0028F7D194F80D
:10139000501003200129F2D0E4E7054814388542B3
:1013A00002D00DB10120DDE70420DBE720000020A2
:1013B000700300201CB507490120CDE9000100237E
:1013C000802205A1074800F0C7FDBDE81C4000F0E1
:1013D000EFBC00000000002073746172745F7461E0
:1013E000736B00005D180008FFF772FAFFF72EFF1D
:1013F000FFF7D0FEFFF7DEFFFEE700002DE9F0412A
:101400001E4C0F460546E6682068001D00F09EFA57
:1014100038B9206890F82C10012088402169814358
:101420002161681C15D1A7B11549226848689060F0
:1014300023688268DA6022688368121D5A60226815
:10144000121D8260206841610868401C0860BDE888
:10145000F08120683544B5424560216805D2E06BD3
:10146000BDE8F041091D00F0E7BAA06B091D00F0CE
:10147000E3FAA06A8542EAD2A562E8E720000020EC
:10148000700300202DE9F041054600F0F9FA364CD2
:10149000A068401CA0602068344F10B1606940B360
:1014A0002DE02560A068012829D1002606EB8600E2
:1014B00007EB800000F0B2FA761C052EF6D32B481D
:1014C000643000F0ABFA2948783000F0A7FA2748DA
:1014D0008C3000F0A3FA2548A03000F09FFA234892
:1014E000B43000F09BFA21486430A0631430E0630C
:1014F00005E02068E96AC06A884200D82560606A11
:10150000401C60626864E96A0120226988401043D7
:10151000206101EB810007EB80004068A8608168D2
:10152000E9608268291D51608160E86A00EB8000F3
:1015300007EB8001696157F82010491C47F820101B
:1015400000F0ACFA606900280CD02068E96AC06A33
:10155000884207D206494FF080500860BFF34F8F92
:10156000BFF36F8FBDE8F08120000020BC02002097
:1015700004ED00E010B50446006B00F099FA204637
:10158000BDE8104000F094BA0E484FF4884142077D
:1015900006D0C01D0B4920F00700411AC1F5884153
:1015A000094A00230144C2E900030839143A21F032
:1015B000070111604B600B600B1AC0E900139360C8
:1015C000536070478403002074000020144E154CB3
:1015D000A6F1A0074FF08058DFF84C9012E000BF52
:1015E00000F04EFAF068C568281D00F0AFF9A06859
:1015F000401EA0606068401E606000F04FFA284600
:10160000FFF7B8FF60680028EAD138680128F9D9E7
:10161000C9F80080BFF34F8FBFF36F8FF2E7000070
:101620005C0300202000002004ED00E02DE9F047DD
:101630000D46DDE909841746824691009946089EC9
:10164000A522206BFEF705FF6FF00301206B01EB75
:101650008701084420F0070765B100202218295CA3
:1016600082F83410295C11B1401C1028F6D30020F8
:1016700084F84300052E00D30426201DE66200F006
:10168000D8F904F1180000F0D4F92461C6F105007E
:101690006462A0614A465146384600F0CDF82060A9
:1016A000B8F1000F01D0C8F80040BDE8F087000095
:1016B00030B5114900E011460A688242FBD34B68FD
:1016C0005C18844203D14068184448600846436867
:1016D0001C18944209D1084C143C2468A24209D039
:1016E00052681A4442600A6812680260814200D05F
:1016F000086030BD0460F9E7740000202DE9F04770
:101700008146086892460C46002600B3606804F1E2
:10171000080540686060A84201D141686160606866
:10172000D0F80C80606840686060A84201D14168D0
:101730006160606806EBC60109EB8101C76853462A
:101740000122384600F048FA761C4745EAD1304677
:10175000BDE8F0870548816B096821B1816BC968D4
:101760000968816270474FF0FF31FAE720000020DE
:10177000BF2080F31188BFF34F8FBFF36F8FFEE759
:10178000064B426900219A4206D1806AA3F12802E1
:10179000904201D000B90121084670477003002033
:1017A00070B50446002600F07FFB224D286808B97A
:1017B000FFF7EAFECCB304F00700C0F11000C1430C
:1017C0008C4232D8211800292FDD686881422CD83C
:1017D000184814300246146801E020461446626836
:1017E0008A4202D22268002AF7D12A6894421CD089
:1017F00006682268026060680836421A102A04D916
:10180000601842606160FFF753FF61686868401AC2
:101810006860AA68904200D2A86041F00040606011
:1018200000202060E868401CE86000F063FC30465F
:1018300070BD00006000002010B5031F4FF08074E1
:101840001C601B1F21F001011960191F024B0B6066
:10185000143940380A6010BD711700081CB500F03B
:101860000FF913490220CDE900010023802211A1C4
:10187000124800F071FB0E490320091DCDE900015B
:10188000002380220EA1104800F066FB08490420C6
:101890000831CDE90001002380220CA10D4800F0A1
:1018A0005BFB002000F04AF9BDE81C4000F0F6B8F0
:1018B000040000207461736B31000000D918000827
:1018C0007461736B32000000EB1800087461736B75
:1018D00033000000FD1800084FF4FA740120FFF7F0
:1018E00053FC204600F012F9F8E74FF4FA74022096
:1018F000FFF74AFC204600F009F9F8E7114C4FF4D5
:10190000FA7500BFFFF720FC012806D0022808D096
:1019100003280AD004280BD00CE0606800F070FAAD
:1019200008E0606800F0FAF904E000F0BDFA01E0B8
:1019300000F0E0FB044800F08FF9284600F0E6F8DC
:10194000E0E7000000000020C8000020D0E90132DC
:1019500001699A60D0E901235A604A68824201D144
:1019600082684A60002202610868401E08600868B8
:10197000704700002DE9F04717460A460546002447
:10198000052600F091FADFF88C80D8F80800824232
:101990003BD3DFF88490761E06EB860104EBC4008F
:1019A00009EB810105EB80000122FFF7A7FE04444B
:1019B000002EF0D104EBC40005EB80000222464665
:1019C000D8F83810FFF79AFE044404EBC40005EB86
:1019D00080000222F16BFFF791FE04440E4904EBF4
:1019E000C40005EB80000422A031FFF787FE044409
:1019F000094904EBC40005EB80000322B431FFF772
:101A00007DFE04440FB10020386000F073FB2046D7
:101A1000BDE8F08720000020BC02002000F1080192
:101A20004FF0FF32C0E90112C16001610021016085
:101A3000704700210161704730B50B685A1C02D015
:101A400000F1080202E0026904E0224654682568B9
:101A50009D42FAD953684B6099608A605160086171
:101A60000168491C016030BD42684A6093688B6020
:101A700093685960916008610168491C0160704772
:101A8000BF2080F31188BFF34F8FBFF36F8F0248E1
:101A90000168491C016070477C0000200349086808
:101AA000401E086001D180F3118870477C0000203F
:101AB00070B500281BD0A0F108046068002816DA71
:101AC0002168002913D120F00040606000F0ECF99B
:101AD000074D60686968084468602046FFF7E8FDC4
:101AE0002869401C2861BDE8704000F003BB70BD50
:101AF000600000204FF0E020002101618161024977
:101B000041610721016170473F19010010B50200D2
:101B100009D000F0C9F900211046FFF76FFC00F072
:101B2000E9FA002807D104494FF080500860BFF35C
:101B30004F8FBFF36F8F10BD04ED00E070B5054609
:101B4000FFF79EFF214C05B92568281DFFF7FEFE13
:101B500058B9E86A1E4A00EB800152F8211021B9F9
:101B600001218140206988432061A86A18B105F1EC
:101B70001800FFF7EBFE606A401C60622068854237
:101B800008D11348291DA030FFF76EFF6068401C84
:101B9000606004E0A068401EA060FFF7DBFDFFF777
:101BA0007DFF2068854202D02846FFF7E3FC60698C
:101BB00000280AD02068854207D106494FF080509E
:101BC0000860BFF34F8FBFF36F8F70BD2000002000
:101BD000BC02002004ED00E02DE9F0410C461D4957
:101BE0001646A8B14FEA000505F13400C4E90050DB
:101BF000E86A2061286BE0610027686C6761A76173
:101C0000A060052B12D00868854203D1277311E02C
:101C10000D68E9E72373032B0CD100F045F9A86A9E
:101C200008B10220207300F065FA03E02846FFF7B0
:101C300091FB20735EB10021286B01E0401C491C20
:101C40000278A52AFAD088082084BDE8F08127848C
:101C5000FBE70000200000202DE9FC474FF00009C1
:101C6000044680F8009028488568806800EBC00032
:101C70008000FFF795FD070044D000222946FFF7BA
:101C800079FE8046002536E005EBC50007EB8006AF
:101C9000307B052817D2DFE800F00305101214008E
:101CA000582000E05220824620467168FEF78EFBE5
:101CB0002046FEF7AFFB202109E04220F3E7532046
:101CC000F1E74420EFE70020EDE72154401C0F2806
:101CD000FBD304F800900444B168308CCDE90001D6
:101CE00052460AA120463369FEF7C2FA2046FEF7A3
:101CF00091FB04446D1C4545C6D33846BDE8FC47FE
:101D0000FFF7D6BEBDE8FC87200000200925630947
:101D100025750925750925750D0A000070B5214D39
:101D20000446286884423CD0002C3AD0FFF7A8FE35
:101D30002046FFF725FD80B3201DFFF707FEE06A70
:101D400001212A69814011432961174900EB800074
:101D500001EB80004068A0608268E2608368221D19
:101D60005A608260E06A00EB800001EB80006061F5
:101D7000E06A00EB800051F82020521C41F820203E
:101D8000E06A2968C96A884207D308494FF0805041
:101D90000860BFF34F8FBFF36F8FBDE87040FFF750
:101DA0007DBE70BD20000020BC02002004ED00E0DC
:101DB0007CB50F480025CDE900502B4680220DA1AF
:101DC0000E4800F0C9F80A4C2C3C01280ED1BF2067
:101DD00080F31188BFF34F8FBFF36F8F4FF0FF3049
:101DE000A06201206061E56000F088F8206B7CBD96
:101DF0004C00002049444C4500000000CD1500086F
:101E000070B50446FFF73CFE244D04B92C68201D34
:101E1000FFF79CFD58B9E06A214A00EB800152F8B7
:101E2000211021B901218140286988432861A06AD5
:101E300018B104F11800FFF789FD1948211DB430CD
:101E4000FFF712FE94F850000026012801D184F813
:101E50005060FFF723FE686928B1FFF711FEFFF716
:101E600079FCFFF71BFE2868844209D1686940B1FC
:101E70000C494FF080500860BFF34F8FBFF36F8F56
:101E800070BD0748B4300068A968884201D12E604F
:101E900070BDBDE8704000F00FB8000020000020C9
:101EA000BC02002004ED00E00248416B491C416384
:101EB00070470000200000200E48416B11B1012145
:101EC000C16170470021C16101690B4AB1FA81F11A
:101ED000C1F11F0101EB810102EB810101F1080356
:101EE0004A6852684A609A4201D152684A60D16891
:101EF0000160704720000020BC020020094810B596
:101F0000016841F47F010160016841F07F41016097
:101F1000FFF7F0FD044900200860FEF74FF90020AC
:101F200010BD000020ED00E07C00002010B5BF20B7
:101F300080F31188BFF34F8FBFF36F8F00F048F825
:101F400018B104494FF080500860002080F31188D8
:101F500010BD000004ED00E02DE9FF5F8346DDE9E0
:101F60000E87994616468A469000FFF719FC050031
:101F70001DD05420FFF714FC040015D05421FEF7A7
:101F800092FA25630021CDE90241CDE900874B4655
:101F9000324651465846FFF749FB2046FFF772FA92
:101FA000012004B0BDE8F09F2846FFF781FD4FF007
:101FB000FF30F6E70548416919B1406B18B10020C0
:101FC0007047012070470220704700002000002069
:101FD0002DE9F041454C0026606B28B1A069401CFA
:101FE000A0613046BDE8F081E5686D1CE56008D170
:101FF000A06BE16BA163E063206A401C2062FFF7E5
:10200000A9FBA16A3A488D420FD34FF0000EA16B95
:10201000096839B1A16BC968C9684A68954212D28A
:10202000A26202E04FF0FF31A1622168C96A01EBB0
:10203000810150F82100012800D90126E06900281B
:10204000CFD00126CDE7D1E902724B69BA60D1E960
:1020500002277A605F680A1D974201D1CF685F60EE
:10206000C1F814E01F687F1E1F60D1F828C0BCF1C2
:10207000000F15D0D1E907379F60D1E907377B60A2
:10208000DCF8047001F118039F4202D10B6ACCF80E
:102090000430C1F828E0DCF800305B1ECCF80030DA
:1020A000CB6A0127D4F810C09F4047EA0C0727618C
:1020B00003EB830300EB83035B688B609F68CF6057
:1020C0009F687A609A60CA6A02EB820200EB820320
:1020D0004B6150F822305B1C40F82230C96A2268FC
:1020E000D26A914293D9012691E700002000002096
:1020F000BC0200202DE9F04100242746FFF7C0FC78
:102100003F4D686B401E6863686B002872D1A868F9
:102110003C4B00264FF00108F0BB6BE0D868C46868
:10212000D4E90721A06A9160D4E90712516042689E
:1021300004F118018A4201D1216A4160A662016856
:10214000491E0160D4E9022160699160D4E902125C
:1021500051604268211D8A4201D1E2684260666195
:102160000268521E0260E26AD5F810C008FA02F056
:1021700040EA0C00286102EB8200224A8C3A02EB12
:1021800080004068A060D0F808C0C4F80CC0D0F847
:1021900008C0CCF8041000E012E08160E06A00EBB7
:1021A000800002EB8001616152F82010491C42F866
:1021B0002010E06A2968C96A884201D3C5F81C80EA
:1021C00018680028AAD10CB1FFF7C4FAAC693CB179
:1021D000FFF7FEFE08B1C5F81C80641EF8D1AE61A1
:1021E000E86938B10849012738070860BFF34F8F05
:1021F000BFF36F8FFFF752FC3846BDE8F081000057
:10220000200000204803002004ED00E0010202034A
:102210000405060708090A0B0C0D0E0F101000002C
:102220000000000000000102030406070809000086
:1022300000000102030400005822000800000020F2
:102240008000000028010008D8220008800000203B
:10225000684D00004401000800000000000000007C
:10226000000000000000000001000000100000005D
:102270000000000000127A000000000000000000D2
:10228000000000000000000000000000000000004E
:10229000000000000000000000000000000000003E
:1022A000000000000000000004000000000000002A
:1022B000000000000000000000000000000000001E
:1022C000000000000000000000000000000000000E
:0822D00000000000AAAAAAAA5E
:04000005080000ED02
:00000001FF
