:10052D0020202D20202D20200020203A20203A2090
:02053D0020009C
:10029A0012051912056C7BFF7A05792D7D017F0104
:1002AA001204A57BFF7A0579367D017F021204A527
:1002BA00120003120181E511FB7A00750C027D011F
:1002CA007F011204E6E512FB7A00750C027D047FB9
:1002DA00011204E6E513FB7A00750C027D077F0123
:1002EA001204E6E514FB7A00750C027D017F021206
:1002FA0004E6E515FB7A00750C027D047F02120400
:10030A00E6E516FB7A00750C027D077F021204E609
:02031A0080A1C0
:09054E000711130B100C3B3706DA
:05056C00C2B5C2B62279
:06031C0025F0FDEC3EFCA3
:060322008C088D09AB07F9
:10032800D2B5E4FD74017E00A805088005C333CE6C
:1003380033CED8F9FFEBF582EF558224FF92B4D281
:10034800B6C2B60DBD08DDE4FD74017E00A805083F
:100358008005C333CE33CED8F9FFE5085EFEE50944
:100368005F4E24FF92B4D2B6C2B60DBD08DBC2B54B
:010378002262
:02037900AD07CE
:10037B00E4F9430501D2B5FB74017E00A8030880A4
:10038B0005C333CE33CED8F9FFEDF582EF5582247A
:10039B00FF92B4C2B6D2B60BBB08DDE4FBD2B6C239
:1003AB00B630B40D7401A803088002C333D8FC42E5
:0B03BB00010BBB08E8C2B5C2B4AF01E3
:0103C6002214
:10000300E4FDFC7F8E120322E51175F00A8475F07E
:1000130010A4FFAEF0E51175F00A84EF7F8C120394
:100023001CE51275F00A8475F010A4FFAEF0E5121A
:1000330075F00A847C00EF7F8812031CE51375F0CA
:100043000A8475F010A4FFAEF0E51375F00A847C02
:1000530000EF25F0FDEC3EFC7F86120322E51475CC
:10006300F00A8475F010A4FFAEF0E51475F00A846D
:100073007C00EF25F0FDEC3EFC7F84120322E515A6
:1000830075F00A8475F010A4FFAEF0E51575F00A5B
:10009300847C00EF25F0FDEC3EFC7F82120322E519
:1000A3001675F00A8475F010A4FFAEF0E51675F02E
:1000B3000A847C00EF25F0FDEC3EFC7F80120322D6
:1000C300E51775F00A8475F010A4FFAEF0E5177517
:1000D300F00A847C00EF25F0FDEC3EFC7F8A1203DE
:0A00E300227D807C007F8E02032244
:100181007F8C120379EFC4540F75F00AA4FEEF546B
:100191000F2EF5117F88120379EFC4540F75F00A01
:1001A100A4FEEF540F2EF5127F86120379EFC4548B
:1001B1000F75F00AA4FEEF540F2EF5137F8412037E
:1001C10079EFC4540F75F00AA4FEEF540F2EF51405
:1001D1007F82120379EFC4540F75F00AA4FEEF5425
:1001E1000F2EF5157F80120379EFC4540F75F00AB5
:1001F100A4FEEF540F2EF5167F8A120379EFC45433
:0C0201000F75F00AA4FEEF540F2EF51745
:01020D0022CE
:06053F00C2A58F80D2A7C7
:080545007F027EEFDEFEDFFC09
:01054D00228B
:0A055800C2A612053FC2A702054526
:1004C800CFCDCFCECCCE12012C7C007D0A12012CD0
:0404D800ED2430FFE0
:0A04DC00D2A612053FC2A702054593
:10050300AE07BE0104ED148006BE0209ED243F448C
:0605130080FF12055822D2
:100519007F381205587F0C1205587F061205587F3F
:04052900010205586E
:0A056200AC03120503AF040204DC31
:0604A5008B088A09890A98
:1004AB00120503E4FDAB08AA09A90A8D8275830026
:0C04BB001200EDFF60061204DC0D80E969
:0104C7002212
:0C0472007F0AEA24FFFDE434FFFC7E005A
:08047E008E0D8F0E8C0F8D1006
:100486007F017E00E4FBEBC39510E50F6480F874F2
:0E0496008098500AAC0DAD0E12011A0B80E8D2
:0104A4002235
:0404E6008A0A8B0BE8
:1004EA00120503AA0CEAD39400400D120472AC0A56
:0804FA00AD0B1204C81A80EDDD
:0105020022D6
:1003C700120503C3EA64809480400B7F2B1204DC80
:1003D7008A1D8B1E800E7F2D1204DCC3E49BF51E45
:1003E700E49AF51DAA1CEAD39400400D120472ACDE
:0903F7001DAD1E1204C81A80EDB0
:0104000022D9
:040401008A218B229F
:10040500120503AA23EAD3940040297F101204742D
:10041500AC21AD22CFCDCFCECCCE12012CEF540FD7
:10042500FEC3940AEE5004243080022437FF1204E0
:04043500DC1A80D17C
:0104390022A0
:04043A008A268B275C
:10043E00120503AA28EAD394004028EA24FFFDE41B
:10044E0034FFFC7F027E0012047EAC26AD27CFCD9A
:10045E00CFCECCCE12012CEF54012430FF1204DC8F
:03046E001A80D21F
:010471002268
:0300000002020EEB
:0C020E00787FE4F6D8FD758129020255C6
:1000ED00BB010CE58229F582E5833AF583E02250C8
:1000FD0006E92582F8E622BBFE06E92582F8E22212
:0D010D00E58229F582E5833AF583E493222B
:10011A00EF8DF0A4A8F0CF8CF0A428CE8DF0A42EF9
:02012A00FE22B3
:10012C00BC000BBE0029EF8DF084FFADF022E4CCB7
:10013C00F875F008EF2FFFEE33FEEC33FCEE9DEC80
:10014C00984005FCEE9DFE0FD5F0E9E4CEFD22EDC6
:10015C00F8F5F0EE8420D21CFEADF075F008EF2F10
:10016C00FFED33FD4007985006D5F0F222C398FD01
:05017C000FD5F0EA229E
:10021A0002029AE493A3F8E493A34003F68001F25E
:10022A0008DFF48029E493A3F85407240CC8C333E5
:10023A00C4540F4420C8834004F456800146F6DFB4
:10024A00E4800B010204081020408090054EE47EF1
:10025A00019360BCA3FF543F30E509541FFEE493A9
:10026A00A360010ECF54C025E060A840B8E493A370
:10027A00FAE493A3F8E493A3C8C582C8CAC583CA9B
:10028A00F0A3C8C582C8CAC583CADFE9DEE780BE53
:0105570000A3
:00000001FF
