:1000E400EF4E600F7D027CEFDCFEDDFCEF1F70F055
:0300F4001E80ED7E
:0100F70022E6
:10000E00E4F50B20B1137F14FE1200E430B1FD7F36
:10001E00147E001200E4750B0120B0147F147E00D4
:10002E001200E430B0FD7F147E001200E4750B0266
:10003E0020B2147F147E001200E430B2FD7F147ED5
:10004E00001200E4750B0320B3147F147E0012001F
:10005E00E430B3FD7F147E001200E4750B04AF0B89
:01006E00226F
:10006F001200CFE4F50985090A7F0A7E001200E429
:10007F000509E509C3946440ED750964E509D39456
:10008F000040E085090A7F0A7E001200E41509800E
:01009F00EB75
:03000B000200A050
:1000A000C0E0C0F0C0D0758CFF758A9C0508E508DB
:1000B00075F0648485F008E508C3950A5006C2A06F
:0F00C000D2A18004D2A0C2A1D0D0D0F0D0E03223
:1000CF005389F0438901C28DD28C758CFF758A9C40
:0500DF00D2A9D2AF22FE
:030000000200F803
:0C00F800787FE4F6D8FD75810B02006FE4
:00000001FF
