:10040000EF4E600F7D027CEFDCFEDDFCEF1F70F035
:030410001E80ED5E
:0104130022C6
:100320006F6E006F6B3A204C4544206973206F6EEE
:10033000006F6666006F6B3A204C4544206973205D
:100340006F6666004572726F723A20556E6B6E6F03
:0B035000776E20636F6D6D616E6400BE
:10035B00010900100A00000000000000000000006E
:10036B000000000000012A00012B00010800101AF8
:10037B000000000000000000000000000000000072
:1003DE00C29FD29E53877F53890F438920758BFD11
:1003EE00758DFDD28ED29CC29DD2ACD2AFC298C2B8
:0203FE00992242
:0C042700E509640160FA7509018F992253
:10041400120026FF600C120427740129F9E43AFA49
:0304240080EE2245
:0602E0008B2C8A2D892EF3
:1002E600E52B6034E4FFEFC3952A5016740A2FF805
:1002F600E6AB2CAA2DA92E8F8275830012003F0F24
:1003060080E4AB2CAA2DA92E8F82758300E41200FF
:090316003FE4F52AF52BD322C3C4
:01031F0022BB
:1002880012000E1203DE7B007A00791A1202E05087
:10029800F5781A7C007D007BFF7A0379201201DF54
:1002A800EF700AF5A07BFF7A037923801B781A7C0C
:1002B800007D007BFF7A0379311201DFEF700E7544
:1002C800A0FF7BFF7A03793512041480B97BFF7A8B
:0802D80003794412041480AE06
:0300230002038C49
:10038C00C0E0C0D075D000C000C00730980FAF2AB5
:10039C00052A740A2FF8A699750800C29830990599
:0E03AC00750900C299D007D000D0D0D0E03241
:03000B000203BA33
:1003BA00C0E0C0D0758CFC758A170508E52AD3946D
:1003CA0000400CE508940A4006752B01750800D018
:0403DA00D0D0E0326D
:10000E005389F0438901C28DD28C758CFC758A1789
:05001E00D2A9D2AF22BF
:030000000201FCFE
:0C01FC00787FE4F6D8FD75812E020243E6
:10002600BB010689828A83E0225002E722BBFE02D8
:09003600E32289828A83E493220B
:10003F00F8BB010DE58229F582E5833AF583E8F0F7
:10004F00225006E92582C8F622BBFE05E92582C8A3
:02005F00F2228B
:10006100E3F5F009E208B5F06D606B80F3E3F5F0BC
:1000710009E608B5F060605E80F387F009E608B52F
:10008100F054605280F487F009E208B5F048604608
:1000910080F488828C8387F009E0A3B5F03860365C
:1000A10080F488828C8387F009E493A3B5F02760FC
:1000B1002580F388828C83E3F5F009E0A3B5F0167F
:1000C100601480F388828C83E3F5F009E493A3B58F
:1000D100F004600280F202018C808580E7808E80CE
:1000E100D2803C8015806C807E809B80B5808B8027
:1000F100A1804F8070803A02019889828A83ECFA4C
:10010100E493F5F0A3C8C582C8CCC583CCE493A31E
:10011100C8C582C8CCC583CCB5F070606E80E1895A
:10012100828A83E493F5F0A3E208B5F05E605C8017
:10013100F289828A83E0F5F0A3E608B5F04D604BC1
:1001410080F389828A83E0F5F0A3E208B5F03C6090
:100151003A80F389828A83E493F5F0A3E608B5F047
:100161002A602880F2805389828A83ECFAE493F52D
:10017100F0A3C8C582C8CCC583CCE0A3C8C582C8DA
:10018100CCC583CCB5F004600280E27FFFB5F002FC
:100191000F2240027F012289828A83ECFAE0F5F086
:1001A100A3C8C582C8CCC583CCE0A3C8C582C8CCCE
:1001B100C583CCB5F0D560D380E389828A83ECFA1C
:1001C100E0F5F0A3C8C582C8CCC583CCE493A3C82D
:1001D100C582C8CCC583CCB5F0B160AF80E288F0F0
:1001E100ED2402B4040050A3F582EB2402B4040010
:0B01F100509923234582239000DA730D
:10020800020288E493A3F8E493A34003F68001F282
:1002180008DFF48029E493A3F85407240CC8C333F7
:10022800C4540F4420C8834004F456800146F6DFC6
:10023800E4800B010204081020408090035BE47EF8
:10024800019360BCA3FF543F30E509541FFEE493BB
:10025800A360010ECF54C025E060A840B8E493A382
:10026800FAE493A3F8E493A3C8C582C8CAC583CAAD
:10027800F0A3C8C582C8CAC583CADFE9DEE780BE65
:01038B000071
:00000001FF
