:1008BA00EF4E600F7D027CEFDCFEDDFCEF1F70F077
:0308CA001E80EDA0
:0108CD002208
:0608F500AE071FEE600BD0
:0B08FB00752D02152DE52D60F180F831
:0109060022CE
:0608E200AE071FEE600CE2
:0C08E80000752E14152EE52E60F080F82F
:0108F40022E1
:06090700AE071FEE600BBD
:0B090D00752F19152FE52F60F180F801
:0109180022BC
:1007E200C2AFD2B7C2B77FF7DFFED2B77F20DFFE3C
:0E07F200A2B7B3E433FE7FF7DFFED2AFAF064F
:0108000022D5
:10080100E4FEC2AFC2B77D04DDFEEF1392B7EFC3C2
:0E08110013FF7D18DDFED2B7D2AF0EBE08E495
:01081F0022B6
:10079900E4FFFEC2AFC2B77D02DDFED2B77D02DD46
:1007A900FEEFC313FF30B7034307807D18DDFED288
:0507B900AF0EBE08DEDA
:0107BE002218
:100642001207E27FCC1208017F441208017FE87E84
:10065200031208BA1207E27FCC1208017FBE120809
:10066200011207998F15120799EFFEE515FFFDACF0
:0F06720006EC120243E4FBFA798078411201177B
:010681002256
:05093C00E4AF2CF52CD6
:010941002293
:10087500E4FF20B1030FC2A320B0027F0220B20221
:070885007F0320B3027F0492
:01088C002249
:1006BC00852A2B1208758F2AE52BB40107E52A70C1
:1006CC0003752C01E52BB40207E52A7003752C0287
:1006DC00E52BB40307E52A7003752C03E52BB40452
:0806EC0007E52A7003752C04D8
:0106F40022E3
:06091900C2A58F80D2A7E9
:08091F007F027EEFDEFEDFFC2B
:0109270022AD
:0A092800C2A6120919C2A702091F96
:10082000CFCDCFCECCCE12033C7C007D0A12033C50
:04083000ED2430FF84
:0A083400D2A6120919C2A702091F7B
:1008A400AE07BE0104ED148006BE0209ED243F44E8
:0608B40080FF120928225A
:1008CE007F381209287F0C1209287F061209287F0B
:0408DE0001020928E2
:0A093200AC031208A4AF040208345D
:0607BF008B158A16891754
:1007C5001208A4E4FDAB15AA16A9178D827583003E
:0C07D5001202FDFF60061208340D80E9DE
:0107E10022F5
:0C0766007F0AEA24FFFDE434FFFC7E0063
:080772008E1C8F1D8C1E8D1FD3
:10077A007F017E00E4FBEBC3951FE51E6480F874DD
:0E078A008098500AAC1CAD1D12032A0B80E8AB
:01079800223E
:04083E008A178B1872
:100842001208A4AA19EAD39400400D120766AC1745
:08085200AD181208201A80ED18
:01085A00227B
:100682001208A4C3EA64809480400B7F2B120834C2
:100692008A1A8B1B800E7F2D120834C3E49BF51B34
:1006A200E49AF51AAA19EAD39400400D120766AC2F
:0906B2001AAD1B1208201A80ED9C
:0106BB00221C
:0406F5008A228B23A7
:1006F9001208A4AA24EAD3940040297F101207689B
:10070900AC22AD23CFCDCFCECCCE12033CEF540FCC
:10071900FEC3940AEE5004243080022437FF1208E5
:04072900341A80D12D
:01072D0022A9
:04072E008A278B2863
:100732001208A4AA29EAD394004028EA24FFFDE47F
:1007420034FFFC7F027E00120772AC27AD28CFCDAA
:10075200CFCECCCE12033CEF54012430FF1208342A
:030762001A80D228
:010765002271
:10085B00543A0054483A00544C3A004F563A480028
:0A086B004F563A4C002020202000D8
:06000300010A05010F14C3
:10046D0012088D1208CE7BFF7A08795B7D017F0122
:10047D001207BF7BFF7A08795E7D017F021207BFED
:10048D007BFF7A0879627D097F021207BFE50FFBBA
:10049D003395E0FA7519037D047F02120682E50A91
:1004AD00FB3395E0FA7519037D0C7F02120682125B
:1004BD00093C8F141206428F0E8E0D8D0C8C0BE4A1
:1004CD00FFFEFDFCAB0EAA0DA90CA80B1201B4503A
:1004DD001E7B2D7D037F01120932AF0EAE0DAD0CCB
:1004ED00AC0B12022D8F138E128D118C1080157B7B
:1004FD002B7D037F01120932850E13850D12850C9C
:10050D0011850B10AF13AE12AD11AC1012027CABF6
:10051D0007AA067519037D047F0112083E7B2E7D07
:10052D00077F01120932E4FFFE7DC87C42AB13AA9E
:10053D0012A911A81012000E12027CE47B64FAF9C4
:10054D00F81203CD7519027D087F0112083E0204D1
:01055D00BCE1
:03000B000205EA01
:1005EA00C0E0C0F0C083C082C0D075D000C000C0D7
:0D05FA0001C002C003C004C005C006C00758
:10060700758A18758CFC0509E50970020508C394FD
:1006170014E508940040097508007509001206BC26
:10062700D007D006D005D004D003D002D001D00027
:0B063700D0D0D082D083D0F0D0E032D1
:10088D005389F0438901758A18758CFCC28DD28C01
:07089D00D2A9D2AFC2B922BB
:10000E00EC4D6011E8497017ED33EC3304600DE4EC
:10001E00FCFFFEFD22E933E8330470F80202E81219
:10002E0002B358046009E4CC24815006285009021A
:10003E0002F22840030202EFC0E0EB4A7044B9809E
:10004E0006D0E0FB0202DEEF4E701CBD8008EBFF17
:10005E00EAFEE9FD80EBE98DF0A4FEE5F00200F783
:10006E00E9CDF9EAFEEBFFEF89F0A4FCE5F0CE89CD
:10007E00F0A42EFFE435F0CD89F0A42DFEE435F08A
:10008E008067EF4E7005BD80D780C3EF8BF0A4ACB8
:10009E00F0EE8BF0A42CFCE435F0F8EF8AF0A42CF3
:1000AE00E5F038FCE433CB8DF0A42CFCE5F03BF806
:1000BE00EE8AF0A42CFCE5F038F8E433CF89F0A4F6
:1000CE002CFCE5F038CF3400CE89F0A42FFFE5F0FC
:1000DE003EFEE433C98DF0A42EFEE5F039CD8AF054
:1000EE00A42FFFE5F03EFEE43DFD33D0E0FB5007CC
:1000FE000BBB000F0202F2EC2CFCEF33FFEE33FED3
:06010E00ED33FD0202CA00
:100114000202F2EC5D046005E8590470030202E88F
:100124001202B3580460F6EC4860F2EC7004FDFE71
:10013400FF22C860DB2481C85009C39860025006BE
:100144000202EF9850CAF582E9294B4A7005AB8246
:100154000202DE75F0007C1A7880C3EF9BEE9AED04
:1001640099400DC3EF9BFFEE9AFEED99FDE842F036
:10017400DC23ACF0D0E0FFD0E0FED0E0FDAB822089
:10018400E7101BEB60BAEC2CFCEF33FFEE33FEED13
:1001940033FD0202CAE803F830E705C0F075F00049
:1001A400EF2FFFEE33FEED33FD40B830E7C280AAF7
:1001B40074F8CC6480CCC86480C8F58204604FC3F2
:1001C400EB9FF5F0EA9E42F0E99D42F0E89C45F091
:1001D400603C501DE5825FFFE582D313CB5BCBF41B
:1001E4002B5582FB50280ABA002409B90020088044
:1001F4001DE5825BFBE582D313CF5FCFF4C3132FDE
:100204005582FF50090EBE00050DBD00010CC3EB65
:100214009FF5F0EA9E42F0E99D42F0E89C45F060CB
:0902240007CC4820E701B3EC22ED
:10022D00ED33EC33600A047003BD8004ECB2E7FCDF
:01023D00229E
:10023E0075F020800E75F010800575F0087D007E3B
:10024E00007F003392D530D50312045FEC3340109B
:10025E00EF33FFEE33FEED33FDEC33FCD5F0ED2244
:0E026E00E5F0247EA2D513CC92E7CDCEFF2280
:10027C00EDD2E7CD33EC3392D524814006E4FFFE7A
:10028C00FDFC22FCE4CFCECDCC24E0501174FF80D9
:10029C00EDC3CC13CCCD13CDCE13CECF13CF047076
:0702AC00F030D5DE02045F13
:1002B300E9D2E7C933E833F892D5EDD2E7CD33EC91
:0702C30033FC5002B2D5220A
:1002CA00EC30E7100FBF000C0EBE00080DBD000495
:1002DA000BEB6014A2D5EB13FCED92E7FD2274FF41
:1002EA00FCFDFEFF22E480F8A2D574FF13FC7D809A
:0302FA00E480EFAE
:0300000002055E98
:0C055E00787FE4F6D8FD75812F0205A51A
:1002FD00BB010CE58229F582E5833AF583E02250B6
:10030D0006E92582F8E622BBFE06E92582F8E222FF
:0D031D00E58229F582E5833AF583E4932219
:10032A00EF8DF0A4A8F0CF8CF0A428CE8DF0A42EE7
:02033A00FE22A1
:10033C00BC000BBE0029EF8DF084FFADF022E4CCA5
:10034C00F875F008EF2FFFEE33FEEC33FCEE9DEC6E
:10035C00984005FCEE9DFE0FD5F0E9E4CEFD22EDB4
:10036C00F8F5F0EE8420D21CFEADF075F008EF2FFE
:10037C00FFED33FD4007985006D5F0F222C398FDEF
:05038C000FD5F0EA228C
:1003910075F008758200EF2FFFEE33FECD33CDCC23
:1003A10033CCC58233C5829BED9AEC99E5829840A6
:1003B1000CF582EE9BFEED9AFDEC99FC0FD5F0D683
:1003C100E4CEFBE4CDFAE4CCF9A88222B800C1B9AD
:1003D1000059BA002DEC8BF084CFCECDFCE5F0CBEB
:1003E100F97818EF2FFFEE33FEED33FDEC33FCEB24
:1003F10033FB10D703994004EB99FB0FD8E5E4F9DF
:10040100FA227818EF2FFFEE33FEED33FDEC33FCCB
:10041100C933C910D7059BE99A4007EC9BFCE99ABF
:10042100F90FD8E0E4C9FAE4CCFB2275F010EF2F04
:10043100FFEE33FEED33FDCC33CCC833C810D70704
:100441009BEC9AE899400AED9BFDEC9AFCE899F83F
:0E0451000FD5F0DAE4CDFBE4CCFAE4C8F922D2
:0E045F00C3E49FFFE49EFEE49DFDE49CFC22AE
:10056A0002046DE493A3F8E493A34003F68001F236
:10057A0008DFF48029E493A3F85407240CC8C33392
:10058A00C4540F4420C8834004F456800146F6DF61
:10059A00E4800B0102040810204080900003E47EEE
:1005AA00019360BCA3FF543F30E509541FFEE49356
:1005BA00A360010ECF54C025E060A840B8E493A31D
:1005CA00FAE493A3F8E493A3C8C582C8CAC583CA48
:1005DA00F0A3C8C582C8CAC583CADFE9DEE780BE00
:0100090000F6
:00000001FF
