:020000040800F2
:100000007818002021020008C70F0008D70E00084A
:10001000C50F000817040008C11000080000000008
:10002000000000000000000000000000890100083E
:100030001904000800000000CD010008C90F0008E5
:100040003B0200083B0200083B0200083B0200089C
:100050003B0200083B0200083B0200083B0200088C
:100060003B0200083B0200083B0200083B0200087C
:100070003B0200083B0200083B0200083B0200086C
:100080003B0200083B0200083B0200083B0200085C
:100090003B0200083B0200083B0200083B0200084C
:1000A0003B0200083B0200083B0200083B0200083C
:1000B0003B0200083D1000083B0200083B0200081C
:1000C0003B0200083B0200083B0200083B0200081C
:1000D0003B0200083B0200083B0200083B0200080C
:1000E0001B0400083B0200083B02000800F002F875
:1000F00000F03AF80AA090E8000C82448344AAF188
:100100000107DA4501D100F02FF8AFF2090EBAE885
:100110000F0013F0010F18BFFB1A43F0010318473B
:100120004821000068210000103A24BF78C878C137
:10013000FAD8520724BF30C830C144BF04680C60ED
:10014000704700000023002400250026103A28BF35
:1001500078C1FBD8520728BF30C148BF0B60704739
:100160001FB51FBD10B510BD00F01BF91146FFF7FC
:10017000F7FF00F0D7FF00F039F903B4FFF7F2FF03
:1001800003BC00F041F90000224B19680868B0E890
:10019000F00F80F30988BFF36F8F4FF0000080F3FA
:1001A00011884EF00D0E70470000000006480068F0
:1001B000006880F3088862B661B6BFF34F8FBFF363
:1001C0006F8F00DF00BF00BF08ED00E0EFF3098094
:1001D000BFF36F8F0F4B1A6820E9F00F106008B55E
:1001E0004FF0BF0080F31188BFF34F8FBFF36F8FC5
:1001F00001F0E8FC4FF0000080F31188BDE80840F2
:1002000019680868B0E8F00F80F30988BFF36F8FB2
:10021000704700BF20000020EFF30580704700000A
:100220000948804709480047FEE7FEE7FEE7FEE78A
:10023000FEE7FEE7FEE7FEE7FEE7FEE704480549C6
:10024000054A064B704700003B100008ED0000080F
:1002500078120020781800207814002078140020EC
:10026000032A40F2308010F0030C00F0158011F8E2
:10027000013BBCF1020F624498BF11F801CB00F8BA
:10028000013B38BF11F8013BA2F1040298BF00F80E
:1002900001CB38BF00F8013B11F0030300F04F80A1
:1002A000083AC0F0088051F8043B083A51F804CBF2
:1002B000A0E80810F5E7121D5CBF51F8043B40F8B8
:1002C000043BAFF30080D20724BF11F8013B11F8C3
:1002D00001CB48BF11F8012B24BF00F8013B00F807
:1002E00001CB48BF00F8012B70474FF0000200B56A
:1002F000134694469646203922BFA0E80C50A0E849
:100300000C50B1F12001BFF4F7AF090728BFA0E8F6
:100310000C5048BF0CC05DF804EB890028BF40F8C2
:10032000042B08BF704748BF20F8022B11F0804F04
:1003300018BF00F8012B704770477047704710B521
:10034000203AC0F00B80B1E81850203AA0E81850CD
:10035000B1E81850A0E81850BFF4F5AF5FEA027C8E
:1003600024BFB1E81850A0E8185044BF18C918C0FD
:10037000BDE810405FEA827C24BF51F8043B40F89E
:10038000043B08BF7047D20728BF31F8023B48BF83
:1003900011F8012B28BF20F8023B48BF00F8012BC1
:1003A0007047754600F02CF8AE4605006946534686
:1003B00020F00700854618B020B5FFF73FFFBDE8E5
:1003C00020404FF000064FF000074FF000084FF0BC
:1003D000000B21F00701AC46ACE8C009ACE8C0094D
:1003E000ACE8C009ACE8C0098D46704710B50446BA
:1003F000AFF300802046BDE81040FFF7BEBE00000E
:10040000004870471812002001491820ABBEFEE7D3
:10041000260002007047FEE77047704770B504463B
:1004200000F010F90546601C02D00448007804442E
:1004300000F008F9401BA042FAD370BD1000002064
:100440002DE9F84FDFF8B8910024A9F1040B2346F9
:100450000F2709F1040AABF1040EC9E00125A540FC
:100460002A40AA427DD1674ED1F804C0ACEB060801
:10047000B44532D014DCBCF1030F3AD009DCBCF136
:10048000000F2AD0BCF1010F1CD0BCF1020F31D1FA
:100490001DE0BCF1110F17D0BCF1120F2AD119E0E9
:1004A000B8F5881F19D006DCB8F5803F15D0B8F52F
:1004B000801F1FD111E0B8F5001F0ED0B8F5041F42
:1004C00018D10AE0CB6815E0CB681B1D12E0CB68A1
:1004D00008330FE0CB680C330CE08B682BB1012B99
:1004E0004FF0080303D0456104E0042302E00561F6
:1004F00000E00023FF2A01D8064601E000F10406CF
:100500004FEA840501D9A5F12005D6F8008007FA45
:1005100005FC28EA0C0803FA05F548EA0508C6F8C0
:1005200000804D68ED0062D5374DAE6946F001069A
:10053000AE61AD6924F0030605F001050095334D69
:1005400006EB050CDCF80850A607360F07FA06F88C
:1005500025EA0805DFF8B880404503D14FF00008D0
:1005600017E044E0DFF8AC80404502D14FF00108CD
:100570000FE0DFF8A480404502D14FF0020808E008
:10058000DFF89880404502D14FF0030801E04FF0BA
:10059000040808FA06F848EA0508CCF808804D680F
:1005A000D9F80060ED024D4601D5164300E09643B0
:1005B0002E604D68DAF80060AD02554601D516434D
:1005C00000E096432E604D68DBF80060AD035D46A9
:1005D00001D5164300E096432E604D68DEF80060BA
:1005E000ED03754601D5164300E096432E60641C6A
:1005F0000D682A46E5407FF431AFBDE8F88F000072
:1006000008040140000011100010024000000140E9
:1006100000080140000C014000100140001401409E
:100620008068084000D001207047C26821EA0203B8
:100630000A4043EA0241016170470AB10161704713
:100640000904FBE7014880687047000010000020A3
:1006500002488168027811448160704710000020D0
:10066000074810B5016841F010010160032000F057
:10067000A1F8012000F006F800F050F8002010BDAD
:100680000020024030B505461F4887B0C16941F0DF
:100690000201C161C06906A900F00200009001A832
:1006A00000F030F90498B0B100F04CF9400017495F
:1006B000174AB0FBF1F11748491E0260416040F251
:1006C000E7320021C0E903218160816100F002FB73
:1006D000040003D015E000F035F9E8E70D4800F01C
:1006E00027FB04000DD11D2000F036F8102D07D295
:1006F000002229461D2000F03DF80748056000E073
:10070000012407B0204630BD0010024040420F00D7
:100710000004004094000020140000200C4808B59C
:10072000816941F001018161816901F0010100915C
:10073000C16941F08051C161C06900F080500090F2
:100740000448416821F0E06141F00071416008BD5A
:100750000010024000000140002809DB00F01F02E9
:10076000012191404009800000F1E020C0F8001113
:1007700070470000F0B40E4B1B680C46C3F3022315
:10078000C3F10705042D00D90425191D072901D23D
:10079000002300E0DB1E012606FA05F1491E214078
:1007A00099409E40761E16403143F0BC00F089BC53
:1007B0000CED00E0064900F0070208684FF6FF0361
:1007C000184040EA0220034A1043086070470000C6
:1007D0000CED00E00000FA052DE9F0470F4605009A
:1007E00061D0434E306800F00700B84209D230684B
:1007F00020F0070038433060306800F00700B8424E
:1008000051D128683B4C810712D5400703D5606859
:1008100040F4E06060602878000703D5606840F429
:10082000605060606068A96820F0F0000843606074
:100830002878C00728D06868012810D021680228CD
:1008400010D0890700292EDA616821F003010143E5
:100850006160FFF7F7FE804641F288390DE02168BC
:100860008903EFE78901EDE7FFF7ECFEA0EB080154
:10087000494502D90320BDE8F0876068696800F047
:100880000C00B0EB810FEFD1306800F00700B842E8
:100890000BD9306820F0070038433060306800F032
:1008A0000700B84201D00120E5E72878400705D5C8
:1008B0006068E96820F4E060084360602878000719
:1008C00006D56068296920F4605040EAC100606084
:1008D00000F048F86168084AC1F30311515CC84050
:1008E0000649086006480068FFF7CCFE0020C2E712
:1008F00000200240001002404E2200081C00002090
:10090000140000200F2202600C4A536803F0030316
:100910004360536803F0F0038360536803F4E063BB
:10092000C36052684FF4E06303EAD20202610448F4
:10093000006800F0070008607047000000100240E7
:10094000002002400448054900684968044AC1F390
:100950000221515CC84070471C000020001002407A
:100960005E2200080E4A51680E4801F00C03042B69
:1009700011D0082B0FD10C48C1F38343C903C05CCD
:100980000AD55168084AC1F34041921E515C054A9C
:100990005043B0FBF1F070470449484370470000F2
:1009A0000010024000127A003E22000800093D00BB
:1009B0002DE9F84F040070D02078C04DC00749D011
:1009C0006868C0F38100012807D06868C0F381001F
:1009D000022809D16868C00306D52868800339D584
:1009E00060680028E7D035E06068B0F5803F0BD044
:1009F00010B1B0F5A02F11D0286820F48030286005
:100A0000286820F4802002E0286840F480302860C4
:100A1000606890B1FFF716FE06460AE0286840F4C9
:100A200080202860F0E700BFFFF70CFE801B6428E1
:100A300073D828688003F7D50CE0FFF703FE06465D
:100A400005E000BFFFF7FEFD801B6428F0D8286892
:100A50008003F7D420789A4E80074FF001094FF0B9
:100A6000000839D5686810F00C0F07D06868C0F32B
:100A70008100022809D16868C00306D4286880076D
:100A800014D52069012808D110E02069B0B1C6F85A
:100A90000090FFF7D7FD074605E00AE1FFF7D2FD1A
:100AA000C01B0228C4D828688007F7D52868616968
:100AB00020F0F80040EAC10028600DE0C6F8008090
:100AC000FFF7C0FD074604E0FFF7BCFDC01B02288E
:100AD00023D828688007F7D4207800072CD57948D8
:100AE000A169D9B1C0F80090FFF7ACFD074604E05A
:100AF000FFF7A8FDC01B02280FD8686A8007F7D54A
:100B000071484FF4FA510068B0FBF1F0009000BF5B
:100B10000098411E0091FAD20EE080E0C0F80080FB
:100B2000FFF790FD074604E0FFF78CFDC01B02288D
:100B300075D8686A8007F7D42078400760D5E869DF
:100B40000027C00008D4E86940F08050E861E869F7
:100B5000012700F0805000905C480168C90513D45B
:100B60000168834641F480710160FFF76BFD8246A6
:100B700006E000BFFFF766FDA0EB0A0064284ED830
:100B8000DBF80000C005F5D5E06801280AD008B1FF
:100B9000052813D0286A20F001002862286A20F076
:100BA000040002E0286A40F001002862E06841F297
:100BB000883B98B1FFF746FD82460BE0286A40F07B
:100BC00004002862EEE700BFFFF73CFDA0EB0A013E
:100BD00059455AD8286A8007F6D50CE0FFF732FD50
:100BE000824605E0FFF72EFDA0EB0A0159454CD8DF
:100BF000286A8007F6D41FB1E86920F08050E861C8
:100C0000E06988B36968C1F38101022944D00228F0
:100C1000C6F8608004D0FFF715FD044638E034E0E4
:100C2000FFF710FD074604E0FFF70CFDC01B02288C
:100C30002BD828688001F7D4206AB0F5803F05D111
:100C40006868A16820F4003008436860D4E90801AE
:100C50000843696821F4741108436860C6F860901D
:100C6000FFF7F0FC044606E025E000BFFFF7EAFCD2
:100C7000001B022809D828688001F7D51BE000BFB7
:100C8000FFF7E0FC001B022802D90320BDE8F88F23
:100C900028688001F4D40EE00128F7D06868226A41
:100CA00000F48031914204D1616A00F470108842EE
:100CB00001D00120EAE70020E8E700000010024030
:100CC00000004242800442421C00002000700040AC
:100CD0007047704710B5040003D094F83D0010B180
:100CE00007E0012010BD002084F83C00204600F001
:100CF0001EF8022084F83D00211D206800F0A4F9B0
:100D0000012084F8460084F83E0084F83F0084F80F
:100D1000400084F8410084F8420084F8430084F8DD
:100D2000440084F8450084F83D00002010BD704761
:100D300090F83D10012901D001207047022180F870
:100D40003D100168CA6842F00102CA6000680B49A0
:100D5000884208D0B0F1804F05D00949884202D0BE
:100D60000849884204D1816801F00701062903D0AF
:100D7000016841F00101016000207047002C014032
:100D8000000400400008004070472DE9F04104468F
:100D90000068C66805694FF00007A90713D5B107B9
:100DA00011D5F91E01610120207720688069800734
:100DB000204602D0FFF7E8FF04E000F07EF820466E
:100DC00000F07CF82777680716D5700714D52168DE
:100DD0006FF004000861022020772068806910F419
:100DE000407F204602D0FFF7CFFF04E000F065F817
:100DF000204600F063F82777280715D5300713D56C
:100E000021686FF008000861042020772068C0691D
:100E10008007204602D0FFF7B7FF04E000F04DF84E
:100E2000204600F04BF82777E80616D5F00614D5D3
:100E300021686FF010000861082020772068C069E1
:100E400010F4407F204602D0FFF79EFF04E000F040
:100E500034F8204600F032F82777E80708D0F0078A
:100E600006D021686FF001000861204600F028F8E4
:100E7000280608D5300606D521686FF08000086185
:100E80002046FFF725FF680608D5700606D52168BD
:100E90006FF040000861204600F01CF8A8060AD553
:100EA000B00608D521686FF0200008612046BDE833
:100EB000F041FFF70EBFBDE8F081704770470000BA
:100EC00000680349884201D1FFF7C2BB70470000A8
:100ED000000400407047FEE770B50E4D0221284621
:100EE000FFF79EFBEE1420B131462846FFF798FB32
:100EF00070B90A20FFF792FA02212846FFF790FB0B
:100F000000B9012431462846FFF78AFB00B90224C4
:100F1000204670BD000C014001460148FFF785BB2B
:100F200000080140F0B585B00024234800940194E6
:100F300002940394816941F010018161816901F09B
:100F400010010491816941F020018161816901F002
:100F500020010491816941F004018161816901F0FE
:100F600004010491816941F0080181618069134E97
:100F700000F008000490002203213046FFF75DFBDB
:100F800003210125CDE90015CDE90241694630462E
:100F9000FFF756FA0A4F40F602060122314638465C
:100FA000FFF74BFB009669463846CDE90145FFF750
:100FB00047FA05B0F0BD00000010024000080140F3
:100FC000000C0140FEE7FEE710B500F077FF0128B6
:100FD00003D0BDE8104000F02FBE10BD30B58FB07B
:100FE00028216846FFF781F914210AA8FFF77DF947
:100FF00001210804CDE90010002402940225049187
:10100000CDE907504FF4E01009906846FFF7D0FC97
:1010100008B172B6FEE70F20CDE90A054FF48060F3
:10102000CDE90C4002210AA80E94FFF7D5FB002859
:1010300001D072B6FEE70FB030BD70470148FFF730
:10104000A4BE000094000020F0B50268194B1A4CB1
:101050001A4D4FF08047984205D0B84203D0A042C5
:1010600001D0A84203D122F070064A683243984268
:1010700005D0B84203D0A04201D0A84203D122F447
:101080004074CA6822434C6922F080022243026005
:101090008A68C2620A688262984201D10969016362
:1010A000012141610169C90703D0016921F00101F2
:1010B0000161F0BD002C0140000400400008004028
:1010C000FEE70907090E002804DB00F1E02080F8A4
:1010D0000014704700F00F0000F1E02080F8141DAC
:1010E000704700000EB5094A0120A2F500718DE895
:1010F00007000023802206A1084800F0B5FE084939
:101100000860BDE80E4000F01FBD0000DC020020BA
:1011100073746172745F7461736B000095170008DB
:1011200000000020FFF79CFAFFF758FFFFF7FAFED8
:10113000FFF7D8FFFEE700002DE9F0411E4C0F46F7
:101140000546E6682068001D00F096FB38B9206867
:1011500090F82C1001208840216981432161681C8E
:1011600015D1A7B115492268486890602368826844
:10117000DA6022688368121D5A602268121D82603C
:10118000206841610868401C0860BDE8F081206863
:101190003544B5424560216805D2E06BBDE8F041B9
:1011A000091D00F0A1BBA06B091D00F09DFBA06A0A
:1011B0008542EAD2A562E8E720000020581100200D
:1011C0002DE9F041054600F0B3FB364CA068401C09
:1011D000A0602068344F10B1606940B32DE02560F5
:1011E000A068012829D1002606EB860007EB8000C5
:1011F00000F06CFB761C052EF6D32B48643000F013
:1012000065FB2948783000F061FB27488C3000F0FE
:101210005DFB2548A03000F059FB2348B43000F0B6
:1012200055FB21486430A0631430E06305E020687A
:10123000E96AC06A884200D82560606A0121401CC2
:101240006062E86A226981401143216100EB8000FD
:1012500007EB80004068A8608168E9608268291D0A
:1012600051608160E86A00EB800007EB80016961F2
:1012700057F82010491C47F8201000F067FB606900
:1012800000280CD02068E96AC06A884207D2074962
:101290004FF080500860BFF34F8FBFF36F8FBDE8F2
:1012A000F081000020000020A410002004ED00E0E8
:1012B00038B500F03DFB0E4C2068A8B90D4800F091
:1012C00005FB0C48143000F001FB0A48E0601430C4
:1012D0002061084B0020843B009003F148020C2160
:1012E000052000F0BFFC2060BDE8384000F02EBBB8
:1012F00060000020F011002030B4026C0B46002A80
:101300000BD0C1681144C1608468A14201D3016857
:10131000C16030BC1846FEF7A3BF30BC704710B5A3
:10132000044690F8490030B1012808D12046BDE8B4
:10133000104000F015BB206B00F012FBF6E710BD6B
:10134000144E154CA6F1A0074FF08058DFF84C90D2
:1013500012E000BF00F0ECFAF068C568281D00F04C
:101360008BFAA068401EA0606068401E606000F0BC
:10137000EDFA2846FFF7D3FF60680028EAD1386805
:101380000128F9D9C9F80080BFF34F8FBFF36F8FE1
:10139000F2E70000441100202000002004ED00E0EE
:1013A0000346009829B10260C0E90F31012100F025
:1013B0006DBC0060F8E72DE9F0479946DDE9096466
:1013C00080466FF00303206B03EB8202089D1044FC
:1013D00020F0070761B1002023180A5C83F834204D
:1013E0000A5C12B1401C1028F6D3002084F8430098
:1013F000052D00D30425201DE56200F072FA04F1EA
:10140000180000F06EFA2461C5F105006462A06165
:101410004A464146384600F0ABF92060002E00D025
:101420003460BDE8F087000030B5114900E0114696
:101430000A688242FBD34B685C18844203D140683F
:1014400018444860084643681C18944209D1084C67
:10145000143C2468A24209D052681A4442600A68C7
:1014600012680260814200D0086030BD0460F9E774
:101470008800002070B5002441600B4D006191424E
:1014800006D8D11A8269914206D2011D286907E067
:101490009A4203D2994201D3012403E0011DE86876
:1014A00000F022FA204670BD6000002010B504460E
:1014B00000F03EFAA06B28B15FF0000400F046FA9D
:1014C000204610BD0124F9E770B506460D480D46CB
:1014D000C068C068C468201D00F0CEF994F82400EC
:1014E000410705D52A463146204600F0ABF803E017
:1014F00000F0FE0084F824002046216ABDE8704018
:1015000008470000600000207FB5324E5AE0009886
:10151000002857DB029C606910B1201D00F0ACF977
:1015200003A800F0B1F8054600980A284AD2DFE87F
:1015300000F0490505282E3D0505282E94F82400C5
:101540002A4640F0010084F824000199A069019B1B
:1015500001442046FFF78EFF38B394F8240041077A
:1015600007D50198A1692A460144204600F06AF88F
:1015700003E000F0FE0084F82400216A204688473A
:1015800020E014F8240F00F0FE0020701AE094F818
:1015900024002B4640F0010084F824000198A0614B
:1015A00041191A462046FFF765FF0BE094F8240026
:1015B000810703D4204600F0D3F903E000F0FE00D9
:1015C00084F8240000226946306800F0A9FB002856
:1015D0009DD17FBD60000020F8B50D46064600F0A5
:1015E000E9FA684600F050F80446009810B100F09F
:1015F0006FFDF8BD1148ADB101690968D9B1002589
:10160000311B2A46006800F0D9F900F061FD00287E
:10161000EFD10B494FF080500860BFF34F8FBFF3FD
:101620006F8FF8BDA642EBD800F052FD2146304640
:10163000FFF74AFFF8BD0125E2E700006000002047
:1016400004ED00E070B516460C46054604E0A869B6
:10165000296A044428468847A86923460119324666
:101660002846FFF707FF0028F1D170BD0548816BC0
:10167000096821B1816BC9680968816270474FF0C0
:10168000FF31FAE7200000202DE9F041064600F086
:1016900023FC0E4C0546A068854214D24FF0FF375C
:1016A00004E0C06839460068FFF70EFFE068016893
:1016B0000029F6D12169C4E90310012030602846D1
:1016C000A560BDE8F0810020F8E700006000002080
:1016D000BF2080F31188BFF34F8FBFF36F8FFEE7FA
:1016E000074CE068016841B1C0680021D0F80000F3
:1016F000FFF772FFFFF708FFF3E701210020F7E78C
:10170000600000202DE9F041044600F011F994F941
:10171000455004F1240609E0606A48B1304600F003
:1017200073FC08B100F0DAF96D1E6DB2002DF3DC28
:101730004FF0FF3684F8456000F008F900F0F8F843
:1017400094F9445004F1100709E0206948B1384683
:1017500000F05AFC08B100F0C1F96D1E6DB2002D09
:10176000F3DC84F84460BDE8F04100F0EFB800001D
:1017700010B5031F4FF080741C601B1F21F0010186
:101780001960191F024B0B60143940380A6010BDF4
:10179000D11600083EB500F0CBF8174A0220A2F59A
:1017A00000718DE807000023802214A1154800F085
:1017B0005BFB154C154A00236060A2F50071032005
:1017C0008DE80700802212A1134800F04DFB134A58
:1017D000A060A2F5007104208DE80700002380229C
:1017E0000FA1114800F040FBE060002000F020F95C
:1017F000BDE83E4000F0AAB8280500207461736B74
:10180000310000002D18000800000020740700209F
:101810007461736B320000003F180008C00900209B
:101820007461736B33000000511800084FF4FA74B0
:101830000120FFF771FB204600F0E2F8F8E74FF4D3
:10184000FA740220FFF768FB204600F0D9F8F8E7A9
:101850000025084C4FF4FA76FFF73EFB012804D12F
:10186000606810B100F0E4F86560304600F0C8F838
:10187000F2E7000000000020D0E9013201699A601F
:10188000D0E901235A604A68824201D182684A60E5
:10189000002202610868401E086008687047000066
:1018A000034B0360A3F50070086080201060704750
:1018B0000C0C0020044B0360A3F5806008604FF41B
:1018C00080701060704700005810002000F108017F
:1018D0004FF0FF32C0E90112C160016100210160D7
:1018E000704700210161704730B50B685A1C02D067
:1018F00000F1080202E0026904E02246546825680B
:101900009D42FAD953684B6099608A6051600861C2
:101910000168491C016030BD42684A6093688B6071
:1019200093685960916008610168491C01607047C3
:10193000BF2080F31188BFF34F8FBFF36F8F024832
:101940000168491C01607047900000200349086845
:10195000401E086001D180F311887047900000207C
:1019600070B500281BD0A0F108046068002816DAC2
:101970002168002913D120F00040606000F01AF9BE
:10198000074D60686968084468602046FFF74CFDB1
:101990002869401C2861BDE8704000F099BB70BD0B
:1019A000740000204FF0E0200021016181610249B4
:1019B00041610721016170473F19010070B515466B
:1019C0000E460446FFF7B4FF94F944100020491C6A
:1019D00001D184F8440094F94510491C01D184F8E0
:1019E0004500FFF7B3FFA06B28B92A46314604F142
:1019F000240000F089F82046BDE87040FFF782BE61
:101A000010B5020009D000F0D5F800211046FFF70C
:101A100093FB00F05DFB002807D104494FF0805094
:101A20000860BFF34F8FBFF36F8F10BD04ED00E070
:101A300070B50546FFF77CFF214C05B92568281DC8
:101A4000FFF71AFF58B9E86A1E4A00EB800152F806
:101A5000211021B901218140206988432061A86AB1
:101A600018B105F11800FFF707FF606A401C6062BB
:101A70002068854208D11348291DA030FFF74CFF8C
:101A80006068401C606004E0A068401EA060FFF732
:101A9000EDFDFFF75BFF2068854202D02846FFF787
:101AA0003EFC606900280AD02068854207D10649BB
:101AB0004FF080500860BFF34F8FBFF36F8F70BD42
:101AC00020000020A410002004ED00E002490A6A72
:101AD0000260C96841607047200000200149012070
:101AE000C86170472000002010B50C460549096800
:101AF0001831FFF7F9FE2046BDE810400121FFF73D
:101B00001BBB000020000020F0B40C460D494368C8
:101B10000D68EB619D680E6835620D689E6818352A
:101B200075600D6818359D60096888620168491CF8
:101B300001600AB14FF0FF342046F0BC1146FFF7B8
:101B4000FBBA00002000002030B587B000240394C9
:101B500005AA04A903A80494FFF7A2FEDDE9030186
:101B60000094CDE9011000230EA11048059A00F061
:101B70007BF90F4DE86290B100F036FB01280ED1E1
:101B8000BF2080F31188BFF34F8FBFF36F8F4FF0EB
:101B9000FF30A86201206861EC6000F035F8286B26
:101BA00007B030BD49444C45000000004113000817
:101BB000200000200248416B491C4163704700002F
:101BC000200000200E48416B11B10121C161704716
:101BD0000021C16101690B4AB1FA81F1C1F11F0114
:101BE00001EB810102EB810101F108034A685268AF
:101BF0004A609A4201D152684A60D16801607047D8
:101C000020000020A4100020094810B5016841F40C
:101C10007F010160016841F07F410160FFF7C2FE72
:101C2000044900200860FEF7C1FA002010BD000042
:101C300020ED00E09000002010B5BF2080F3118857
:101C4000BFF34F8FBFF36F8F00F04CF918B1044909
:101C50004FF080500860002080F3118810BD000014
:101C600004ED00E038B50024049D60B15BB10AB119
:101C700009B908E039B91C46012384F846302B46DF
:101C80000094FFF78DFB204638BD00002DE9F041A0
:101C90000F4604004FF001063CD0E06BC8B3B51E00
:101CA000B5FBF0F1206C814234D3FFF741FED4E95B
:101CB0000F20216802FB0011A1600021A1632168AF
:101CC00061600A46D4E90F01401E00FB0121204655
:101CD000E16000F8445F457004F110004FB1FFF778
:101CE000F5FD04F12400FFF7F1FD00BFFFF72EFE24
:101CF00011E021690029F9D000F086F90028F5D01B
:101D000006494FF080500860BFF34F8FBFF36F8FCD
:101D1000ECE7FFE700263046BDE8F08104ED00E087
:101D20002DE9F7470026DFF8E48083B08A460446B1
:101D3000B1464FF0805700BFFFF7FAFDA56BC5B164
:101D400051462046FFF7D8FA6D1EA563206950B1B1
:101D500004F1100000F058F928B1C8F80070BFF382
:101D60004F8FBFF36F8FFFF7F1FD012006B0BDE885
:101D7000F087059808B11EB106E0FFF7E7FD27E000
:101D80006846FFF7A3FE0126FFF7E0FDFFF712FF0D
:101D9000FFF7CEFD94F94400401C01D184F8449033
:101DA00094F94500401C01D184F84590FFF7CEFD21
:101DB00005A9684600F02CF8002820460AD0FFF755
:101DC000A1FC00F085F92046FFF770FB0028B3D096
:101DD0000020CBE7FFF76AFB90B104F124000599DE
:101DE000FFF782FE2046FFF78DFC00F071F9002816
:101DF000A2D1C8F80070BFF34F8FBFF36F8F9BE77E
:101E00002046FFF77FFC00F063F995E704ED00E062
:101E10002DE9F0410C460546FFF78AFD114EF268A8
:101E20006B682168D01A4F1C0AD02F68D6F820C0E2
:101E30000026674506D0934204D8012526600BE0B2
:101E4000002509E0814205D9081A20602846FFF7DD
:101E50003DFEF5E701252660FFF778FD2846BDE841
:101E6000F0810000200000202DE9F04F85B0984659
:101E7000DDE90F540E9F91468A4683460026C4B181
:101E8000BDB14C212046FEF730FA0220256384F8CC
:101E900049000DF1040C04A800978CE8510043465A
:101EA0004A4651465846FFF786FA2046FFF788F91A
:101EB00000E00496049805B0BDE8F08F054841693C
:101EC00019B1406B18B10020704701207047022003
:101ED00070470000200000200148C06870470000E3
:101EE000200000202DE9F041454C0026606B28B110
:101EF000A069401CA0613046BDE8F081E5686D1C1A
:101F0000E56008D1A06BE16BA163E063206A401C2F
:101F10002062FFF7ABFBA16A3A488D420FD34FF026
:101F2000000EA16B096839B1A16BC968C9684A681C
:101F3000954212D2A26202E04FF0FF31A162216805
:101F4000C96A01EB810150F82100012800D901265E
:101F5000E0690028CFD00126CDE7D1E902724B69B4
:101F6000BA60D1E902277A605F680A1D974201D101
:101F7000CF685F60C1F814E01F687F1E1F60D1F852
:101F800028C0BCF1000F15D0D1E907379F60D1E917
:101F900007377B60DCF8047001F118039F4202D11F
:101FA0000B6ACCF80430C1F828E0DCF800305B1E86
:101FB000CCF80030CB6A0127D4F810C09F4047EA24
:101FC0000C07276103EB830300EB83035B688B60E3
:101FD0009F68CF609F687A609A60CA6A02EB82024B
:101FE00000EB82034B6150F822305B1C40F822303A
:101FF000C96A2268D26A914293D9012691E700000A
:1020000020000020A410002070B5C068C068D0E98E
:102010000732816A9A60D0E907235A604B6800F161
:102020001802934201D1036A4B60002383620C685B
:10203000641E0C6024494D6B01249DB1234D6B68D7
:10204000C3619E6806629E6872609A6085622A68B3
:10205000521C2A60C06A0A68D26A904232D90120B2
:10206000CC6170BDD0E902654269B560D0E9025625
:1020700075605668051DAE4201D1C6685660436161
:1020800013685B1E1360C26A0E6904FA02F33343DD
:102090000B610E4B02EB82028C3B03EB8202526817
:1020A00082609668C660966875609560C26A02EB49
:1020B000820203EB8205456153F822506D1C43F800
:1020C0002250C7E7002070BD200000203011002002
:1020D0002DE9F04100242746FFF72AFC3F4D686BAD
:1020E000401E6863686B002872D1A8683C4B0026CC
:1020F0004FF00108F0BB6BE0D868C468D4E9072151
:10210000A06A9160D4E907125160426804F1180195
:102110008A4201D1216A4160A6620168491E0160BC
:10212000D4E9022160699160D4E9021251604268E9
:10213000211D8A4201D1E268426066610268521E36
:102140000260E26AD5F810C008FA02F040EA0C001A
:10215000286102EB8200224A8C3A02EB8000406840
:10216000A060D0F808C0C4F80CC0D0F808C0CCF803
:10217000041000E012E08160E06A00EB800002EBF6
:102180008001616152F82010491C42F82010E06A79
:102190002968C96A884201D3C5F81C8018680028DC
:1021A000AAD10CB1FFF762FAAC693CB1FFF79AFE15
:1021B00008B1C5F81C80641EF8D1AE61E86938B179
:1021C0000849012738070860BFF34F8FBFF36F8FAF
:1021D000FFF7BCFB3846BDE8F0810000200000207E
:1021E0003011002004ED00E030B587B00024FFF787
:1021F0005FF80E4D2868A8B100200390049005AA4E
:1022000004A903A8FFF756FBDDE9032104208DE8AC
:102210000700002306A10848059AFFF725FE68601D
:1022200000B1012407B0204630BD0000600000204E
:10223000546D722053766300E11600080102020318
:102240000405060708090A0B0C0D0E0F10100000FC
:102250000000000000000102030406070809000056
:102260000000010203040000882200080000002092
:1022700094000000280100081C230008940000209E
:10228000E417000044010008000000000000000006
:10229000000000000000000001000000100000002D
:1022A0000000000000127A000000000000000000A2
:1022B000000000000000000000000000000000001E
:1022C000000000000000000000000000000000000E
:1022D00000000000000000000400000000000000FA
:1022E00000000000000000000000000000000000EE
:1022F00000000000000000000000000000000000DE
:1023000000000000000000000000000000000000CD
:0C2310000000000000000000AAAAAAAA19
:04000005080000ED02
:00000001FF
