:10000600EF4E600F7D027CEFDCFEDDFCEF1F70F033
:030016001E80ED5C
:0100190022C4
:1002C600E4F52220B1137F14FE12000630B1FD7F43
:1002D600147E0012000675220120B0147F147E00E1
:1002E60012000630B0FD7F147E0012000675220251
:1002F60020B2147F147E0012000630B2FD7F147EF9
:100306000012000675220320B3147F147E0012002B
:100316000630B3FD7F147E00120006752204AF225C
:0103260022B4
:100263001203CF1203C312038AEF604B1203D88F1A
:100273001FE51FB41603E4F51EE51FB40C03751E3A
:1002830001E51FB41803751E02E51FB45E03751E56
:1002930003E51E7004FF1203D2E51EB401057F14AB
:1002A3001203D2E51EB402057F371203D2E51EB452
:1002B30003057F641203D2E51EFD7C007F0112015A
:0302C300F680A31F
:0C037D000A143F065B4F666D7D077F6F22
:1001F600EF14B40800505490020B75F003A4C583A5
:1002060025F0C5837302022302022702022B020293
:100216002F02023302023B02024302024BD2A480A7
:100226000ED2A48012D2A48016D2A4801AC2A4D25E
:10023600A3D2A28016C2A4D2A3C2A2800EC2A4C216
:10024600A3D2A28006C2A4C2A3C2A274142DF8E649
:0D025600F5807F017E00120006E4F5802295
:1003560053890F438910C28FD28E758DFF758B9C82
:07036600D2ABD2AFC2BB22F3
:0303CF00020356D0
:0303D2008F212256
:03001B00020327B6
:10032700C0E0C0F0C0D0758CFF758A9C0520E52021
:1003370075F0648485F020E520C395215006C2A09E
:0F034700D2908004D2A0C290D0D0D0F0D0E032BB
:0B03A400D288C289D2A8D2AFD2B82202
:0603C30012036D0203A409
:0D038A00E5096006E4F5097F01227F0022ED
:0D039700E5136006E4F5137F01227F0022CC
:0303D500AF122242
:0303D800AF112240
:0300030002001EDA
:10001E00C0E0C0F0C083C082C0D075D000C000C0A8
:10002E0001C002C003C004C005C006C007E50E70C3
:10003E000CFFFE1203AF7F011203C98049E50E6467
:10004E000170491203BA8E0F8F10E4FFFE1203AF38
:10005E00D3E51094A6E50F942E4010E510948EE58E
:10006E000F94325006750E0202014FD3E510948C98
:10007E00E50F94264010E5109474E50F942A50066F
:10008E00751301020147750E0102014FE50E640260
:10009E00600302014F1203BA8E0F8F10E4FFFE129F
:1000AE0003AFD3E5109414E50F9402402CE51094A1
:1000BE00FCE50F94055022E508131313541F240A70
:1000CE00F8C000E6FFE5085407FE7401A806088094
:1000DE0002C333D8FCF45F8034D3E5109426E50FC9
:1000EE0094064030E510940EE50F940A5026E5086C
:1000FE00131313541F240AF8C000E6FFE508540733
:10010E00FE7401A806088002C333D8FC4FD000F657
:10011E0005088006750800750E01E508C394204099
:10012E0020750800E50BF4B50A0FE50DF4B50C09C2
:10013E00850A12850C11750901E4FF1203C9750EAB
:10014E0000D007D006D005D004D003D002D001D005
:0C015E0000D0D0D082D083D0F0D0E032AE
:10036D005389F0438901C28DC28CE4F58CF58A2244
:0B03AF00AD07AC068C8CAF058F8A22D6
:0903BA00AF8CEFFEAD8AEDFF22CD
:0603C900EF24FF928C22DC
:0300000002016A90
:0C016A00787FE4F6D8FD7581220201B117
:10017600020263E493A3F8E493A34003F68001F23A
:1001860008DFF48029E493A3F85407240CC8C3338A
:10019600C4540F4420C8834004F456800146F6DF59
:1001A600E4800B010204081020408090037DE47E69
:1001B600019360BCA3FF543F30E509541FFEE4934E
:1001C600A360010ECF54C025E060A840B8E493A315
:1001D600FAE493A3F8E493A3C8C582C8CAC583CA40
:1001E600F0A3C8C582C8CAC583CADFE9DEE780BEF8
:010389000073
:00000001FF
