:020000040800F2
:10000000C8070020A10100086B180008C9170008E4
:1000100069180008890E0008D518000800000000C3
:100020000000000000000000000000006F18000841
:10003000C30E0008000000006D18000871180008C9
:10004000BB010008BB010008BB010008BB010008A0
:10005000BB010008BB010008BB010008BB01000890
:10006000BB010008BB010008BB0100088D0E0008A1
:10007000BB010008BB010008BB010008BB01000870
:10008000BB010008BB010008BB010008BB01000860
:10009000BB010008BB010008BB010008BB01000850
:1000A000BB010008BB010008BB010008BB01000840
:1000B000BB010008BB010008BB010008BB01000830
:1000C000BB010008BB010008BB010008BB01000820
:1000D000BB010008BB010008BB010008BB01000810
:1000E000BB010008BB010008BB01000800F002F8DA
:1000F00000F047F80AA090E8000C82448344AAF17B
:100100000107DA4501D100F03CF8AFF2090EBAE878
:100110000F0013F0010F18BFFB1A43F0010318473B
:100120009C180000BC180000103A24BF78C878C1A1
:10013000FAD8520724BF30C830C144BF04680C60ED
:10014000704700000023002400250026103A28BF35
:1001500078C1FBD8520728BF30C148BF0B60704739
:10016000642900F07D80002070471FB59DE80300E2
:1001700000F05CFC00F062F91FBD10B500F0C7F99B
:1001800010BD00F02AFA1146FFF7EFFF01F0CEFB99
:1001900000F01AFC03B4FFF7F0FF03BC00F0D8FD39
:1001A0000948804709480047FEE7FEE7FEE7FEE70B
:1001B000FEE7FEE7FEE7FEE7FEE7FEE70448054947
:1001C000054A064B70470000D3180008ED000008F0
:1001D000C8010020C8070020C8030020C803002071
:1001E0000FB4044910B503AA029800F0F9F810BC46
:1001F0005DF814FBBC0000202DE9F0410E460446DA
:10020000002020622046E168884730B3252805D0C9
:10021000D4E901219047206A401CF2E7E1682046BA
:1002200000278847050018D0A5F14100192802D8F9
:1002300020354FF400673246294620462760FFF7F5
:100240008FFF40B1012804D0F61D26F007060836BE
:10025000D8E7361DD6E72846DAE7206ABDE8F08100
:100260002DE9F0410646002410687529314616A58F
:1002700010D0AFF30080002802DA404213A507E057
:1002800031688A0701D512A502E0490704D511A5F6
:10029000012401E0AFF3008000210A2206F12407C7
:1002A00009E0B0FBF2FCB0FBF2F302FB1C003030C3
:1002B00078541846491C0028F3D123462A46304674
:1002C000BDE8F04100F032B8000000002D00000051
:1002D0002B000000200000004FF0000200B5134684
:1002E00094469646203922BFA0E80C50A0E80C5056
:1002F000B1F12001BFF4F7AF090728BFA0E80C5007
:1003000048BF0CC05DF804EB890028BF40F8042BFF
:1003100008BF704748BF20F8022B11F0804F18BF6C
:1003200000F8012B70477047704770472DE9F04780
:100330000D4699469246044600F124080168880655
:1003400004D5E06921F01001216000E00120A842FD
:1003500001DD471B00E00027A1697A1902EB0900C3
:10036000081AA0612078C00602D42046AFF30080AE
:10037000002608E0D4E901211AF806009047206A17
:10038000401C761C20624E45F4DB2078C0060AD55E
:100390002046AFF3008006E0D4E9012130209047E9
:1003A000206A401C2062381EA7F10107F4DC07E038
:1003B000D4E9012118F805009047206A401C20620A
:1003C000281EA5F10105F3DC2046AFF3008020785C
:1003D000000602D50220BDE8F0870120FBE70000FF
:1003E000074B70B50D467B4400F011F804462846D3
:1003F00000F020F810B14FF0FF3070BD204670BD06
:100400002715000001694A1C02610878704700B591
:100410008FB0CDE901310021059105497944CDE93D
:10042000031011466846FFF7E7FE0FB000BD00005D
:10043000E5FFFFFF007B00F08000704710B54248E9
:100440005421FFF749FF41485421FFF745FF404839
:100450005421FFF741FF3F493B483C4A3F4B08606E
:100460003D490A603A491960531C0365481C1065F0
:10047000012008653B48344A39A1784400F008FA65
:1004800020B9384878440A3800F0A7FA37482F4A8C
:1004900035A1784400F0FCF920B9344878440A3892
:1004A00000F09BFA32482A4A2FA1784400F0F0F974
:1004B00020B92F4878440A3800F08FFA40232248A8
:1004C000DC000021224600F0BFF920B12548784425
:1004D000543800F082FA1D4822464023002100F0E3
:1004E000B3F920B121487844543800F076FA18481E
:1004F00022461023002100F0A7F9002806D01C484E
:100500007844BDE81040563800F067BA10BD104876
:1005100070B5006D20F001040B4800F02FFA0B4875
:1005200000F02CFA0A4800F029FA09E0206D20F0CA
:100530000105204600F022FA204600F073F82C4610
:10054000002CF3D170BD000068000020BC0000202A
:1005500010010020180000201C00002020000020B6
:100560007200000030150000770000001C1500002C
:10057000081500000EB5CDE9000100F0C9FB02909E
:1005800069460120ABBE0EBD08B569460090022049
:10059000ABBE08BD1FB58DE8070069460520ABBEA0
:1005A00004B010BD1FB58DE80F0069460620ABBE34
:1005B000F6E708B5694600900920ABBE08BD1CB53A
:1005C000CDE9000169460A20ABBE1CBD704708B5E5
:1005D000694600900C20ABBE08BD754600F004FAD9
:1005E000AE4605006946534620F00700854618B020
:1005F00020B5FFF7E3FDBDE820404FF000064FF0C7
:1006000000074FF000084FF0000B21F00701AC4647
:10061000ACE8C009ACE8C009ACE8C009ACE8C00966
:100620008D46704770B50446051F00F0E3F9006879
:10063000002C14BF446870BD002C18BFAC423CBFF6
:1006400020466468F8D301680A18AA4218BF4560BA
:1006500003D12A6805461144016028684119A14266
:100660001CBF6C6070BD61686960216808442860C7
:1006700070BD2DE9F04705460C46C86820F42010EF
:1006800040F48000C860800602D5084600F0FFFAFA
:10069000E06841F282014FF0FF390140022903D0A6
:1006A000204600F09DFAB5E000F42041B1F5004F7E
:1006B0000FD1C00306D56168E06A884200D80846B9
:1006C000606006E02069E06260606069FFF77FFFBC
:1006D000A061A0680022EEB200280DDAE1688B0567
:1006E0000AD4C043A06041F490302260E0606068AA
:1006F000411C61600670A5E0E0689046226040F40D
:100700000050E060206968BB6069FFF752FF012775
:1007100004F12405A0B1A08910F4407F08D0E0695D
:1007200000F0B3F9206118B1E06840F4006016E011
:10073000E7612561E06820F4407040F480600EE0DD
:10074000E06900F0A2F900282061F1D0E06840F4EF
:10075000006010F4407FE06002D140F48070E060FF
:1007600020696060E06825696FF0010AC1051FD546
:100770006168E06A884200D80846411B04D02246DE
:10078000284600F037FAF0BBE068010203D5E562C5
:10079000C4E9015854E0691CE1626160E16940F418
:1007A0008030491EC4E9021030462E70BDE8F08743
:1007B000010202D500F480320AE06068411C6160E9
:1007C0000670E0680A2E40F48030E06006D0002217
:1007D000E16A6068814203D90B4602E00122F7E733
:1007E0000346A7895B1B7F0503D4E7699F4200DDB1
:1007F000E2B1814200D80146E5620F1AC4E901580E
:10080000002B09DD00E005E022461946284600F0ED
:10081000F1F908B14846C9E747B1A069E5626560EA
:10082000C01BA061E06840F01000E060E0680002DA
:1008300008D56168A069E562491B08446560A0614C
:100840005046B3E73046B1E770B5C468A50713D08A
:10085000650211D4B2F5807F09D0B2F5007F06D0D1
:10086000B2F5806F08D1012300F1240106E05D1E7E
:100870006FF07F46B54201D3012070BD0161C361B5
:10088000416024F470611143C160002070BD00001C
:100890002DE9F0410C4607461646104600F06EF86A
:1008A0002078611C61280AD0722802D077283CD1B8
:1008B00002E00125002405E00225042402E00824CA
:1008C00048F2020511F8010B2B2806D0622809D046
:1008D00011F8010C74280AD00BE045F0030544F030
:1008E0000204EFE745F0040544F00104EAE744F0B0
:1008F000100438462146FFF73DFE411C15D000216B
:10090000316171604FF40071F560F1617061200731
:1009100004D530460222002100F0E6F8306D40F0A8
:10092000010030653046BDE8F0810020FBE72DE98D
:10093000F0410D460646104C206DC10704D0410819
:1009400004D020F00104F7E722460EE0542000F026
:100950009CF807000ED0206D47F001010843542198
:1009600020653846FFF7B8FC3A4629463046BDE8D0
:10097000F0418DE70020D6E7680000202DE9F04720
:1009800004464FF000094FF0FF37C568D4E90486EC
:10099000A80707D0204600F057F93046FFF7F4FDCE
:1009A000002802DA3846BDE8F087280502D540461F
:1009B000FFF738FE4C212046FFF78EFC206D20F01B
:1009C000010020654846EEE710B50446AFF300800D
:1009D0002046BDE81040FFF7DDBB10B500F07EF902
:1009E000BDE8104000F074B9004870476401002071
:1009F00070470000004870476C0100207047704746
:100A00007047704738B504460A4600206946AFF380
:100A10000080002808BF38BD02460099204600F03B
:100A2000A4F9012038BD012000F0F3B9F8B5AFF307
:100A30000080054600200C46102000BF0646A8197D
:100A4000A0420DD9324669460020AFF3008007006E
:100A500008BF00F0DEF90098A04218BF0546C4198F
:100A6000FFF7C8FF05600746F01D20F00700461994
:100A7000284600F073F9B44208BFF8BDA21B314606
:100A80003868BDE8F84000F070B970B50646FFF769
:100A9000B1FF056806F10B0020F00704B4429CBFCB
:100AA000002070BD2B466A68BAB11068A04210D30E
:100AB00004F1080188423CBF5068586007D3516870
:100AC000101941601168091B016058601460101D05
:100AD00070BD13465268002AE7D121462846FFF729
:100AE00091FF0028DED170BD2DE9F0410446164685
:100AF0000D464769007B80072ED03846FFF759FD29
:100B000050BB3EB3012E02D0022E25D104E0204678
:100B100000F045F905441DE03846FFF758FDE1684F
:100B2000002841F01001E16005DA204600F058F895
:100B30000120BDE8F081C9030BD56268E16A9142EA
:100B400000D81146A26911442269891A814200DD48
:100B500008460544002D01DA0220EAE7E16A6068F0
:100B6000E268814206D29103E06203D522F40031AB
:100B700041F01002A6690027AE4213DCE16A81420F
:100B800001D90B4600E0034603EB060C2369ACEBEE
:100B9000030CAC4506DD814201D98C4600E0844659
:100BA0009C4505D1A760276042F02000A5620DE0BA
:100BB000AD1BE669AE1B8142A66000D90846C01A8B
:100BC000281A20605819606022F02000034908406C
:100BD000E060002084F84870ABE70000BFCFD7FF8B
:100BE000C16821F4001141F08001C16000218160E1
:100BF000016070472DE9F047814614460E464FF0DC
:100C0000FF383248D5685769054209D03846A1698E
:100C1000FFF7D5FC002811DB2C48C0430540E560F8
:100C20002B46324649463846FFF7B4FCA16920F00E
:100C30000042B21A11440028A16103D02046FFF7F8
:100C4000CFFF4046BDE8F08770B504460569C06A2D
:100C50006168884200D80846E16821F42011E1600B
:100C6000C90312D5A84208D02246411B2846FFF7E7
:100C7000C1FF10B14FF0FF3070BD0020E562C4E944
:100C80000150E06820F48030E060002070BD10B5B5
:100C90000446C06820F02000E060A16AA069884294
:100CA0000DD02046FFF7D0FFE06820F4405040F020
:100CB0001000E060A06AA0612069E062606044F218
:100CC0004001E0688843E06010BD000010000200B1
:100CD000002801D000F03CB87047000010B5014674
:100CE00002A000F07DF8012010BD000053494752DA
:100CF000545245443A2052656469726563743A20DF
:100D000063616E2774206F70656E3A2000000000EA
:100D100010B5431C02E010F8011B71B18107FAD134
:100D20004FF0013202C88C1A8C4314EAC211F9D078
:100D3000C01A0A0603D0C01E10BDC01A10BD0A0496
:100D400001D0801E10BD0902FCD0401E10BD000065
:100D500001491820ABBEFEE7260002000021016019
:100D6000C0E90110704710207047034640688C4668
:100D7000002818BF88423CBF03464068F8D3186873
:100D80001844884207D00CF1030020F00700001D32
:100D9000411A521A0146081D0A60FFF743BC10B5FC
:100DA0000146C268900703D0900607D5886A0AE01A
:100DB00000F03EF801210160881E10BD8B69486873
:100DC00018440B69C01A91F848301BB191F84910CA
:100DD000401A10BD1103FCD50028FADD401E10BDDD
:100DE00070B505460C460A2000E06D1C00F018F8AE
:100DF00035B128780028F8D102E0641C00F010F822
:100E000014B120780028F8D1BDE870400A2000F025
:100E100007B810B500F010F8BDE81040FFF758BF54
:100E200008B569468DF800000320ABBE08BD000080
:100E3000004870476401002010B5012805D000214A
:100E400003A0FFF7CDFF012010BD09A1F8E70000C6
:100E500053494752544D454D3A204F7574206F66A3
:100E60002068656170206D656D6F7279000000000B
:100E70003A2048656170206D656D6F727920636FEF
:100E80007272757074656400FEE70000014800F03E
:100E900067B800002400002030B590F840500124CD
:100EA000AC40C56B6C60046863604368102B0368DA
:100EB00003D099600068C26030BD9A600068C1606C
:100EC00030BD704772B6FEE710B590F821100024CF
:100ED000022903D00421816301243DE001680A68EE
:100EE00022F00E020A6001680A6822F001020A601C
:100EF0001A4A0168914201D1012121E0174A1432B6
:100F0000914201D110211BE0144A2832914201D1B3
:100F1000891515E0114A3C32914201D189140FE044
:100F20000E4A5032914202D14FF4803108E00B4A10
:100F30006432914202D14FF4801101E04FF0807190
:100F4000064A083A5160012180F82110002180F8FA
:100F50002010416B01B18847204610BD08000240B7
:100F60002DE9F05FC16B0C6801680B68D0F840C0D8
:100F7000042202FA0CF2494DDFF824A1494E4A4FEF
:100F8000DFF828B1DFF828E122422CD05A072AD511
:100F90000A68920603D40A6822F004020A60016813
:100FA000A94201D1042219E0514501D1402215E0A6
:100FB000B14202D14FF4806210E0B94202D14FF445
:100FC00080420BE0594502D14FF4802206E0714582
:100FD00002D14FF4800201E04FF080622F490839BE
:100FE0004A60C16A3BE04FF0020808FA0CF818EAC0
:100FF000040F4FF000094FF0010235D05FEA83780B
:1010000032D50B689B0605D40B6823F00A030B60EE
:1010100080F821200168A94201D1022219E051453E
:1010200001D1202215E0B14202D14FF4007210E04C
:10103000B94202D14FF400520BE0594502D14FF4AE
:10104000003206E0714502D14FF4001201E04FF08A
:101050000072124908394A6080F82090816A00299C
:101060001AD0BDE8F05F0847082505FA0CF52542BF
:1010700012D01B0710D50B6823F00E030B6090F8FD
:101080004010C36B02FA01F15960826380F821209D
:1010900080F82090016BE2E7BDE8F09F0800024075
:1010A0001C00024030000240440002405800024050
:1010B0006C00024030B528B308C813491422194403
:1010C000B1FBF2F18900C1631049816302214177CC
:1010D0001A6843F6F0718A43D0E900142143D0E93D
:1010E00002452C4321430469214344692143846917
:1010F00021431143196000214163012242770177A6
:10110000084630BD012030BDF8FFFDBF00000240A1
:1011100010B590F820400023012C07D0012480F85E
:10112000204090F82140012C02D008E0022010BDA0
:1011300059B101290BD002290BD003290BD001236F
:10114000002180F82010184610BD8262F8E7C262C4
:10115000F6E70263F4E74263F2E770B5044690F8FD
:101160002000002501280CD0012084F8200094F8EC
:1011700021600020012E06D084F820000225284698
:1011800070BD022070BD022684F82160A063206833
:10119000066826F0010606602046FFF77DFEE06A3D
:1011A00000282068016802D041F00E0106E021F01D
:1011B000040101602068016841F00A0101602068B3
:1011C000016841F001010160D9E700000148806831
:1011D000704700000800002002488168027811442E
:1011E0008160704708000020074810B5016841F091
:1011F00010010160032000F075F80F2000F006F8E0
:1012000000F024F8002010BD0020024070B50D4D04
:1012100004464FF47A712878B1FBF0F00A49096866
:10122000B1FBF0F000F0BCFA48B9102C07D2002254
:101230002146501E00F036F800206C6070BD012081
:1012400070BD000008000020140000200C4808B504
:10125000816941F001018161816901F00101009121
:10126000C16941F08051C161C06900F080500090B7
:101270000448416821F0E06141F00071416008BD1F
:101280000010024000000140002809DB00F01F02AE
:10129000012191404009800000F1E020C0F80011D8
:1012A00070470000F0B40E4B1B680C46C3F30223DA
:1012B000C3F10705042D00D90425191D072901D202
:1012C000002300E0DB1E012606FA05F1491E21403D
:1012D00099409E40761E16403143F0BC00F0FBBAA8
:1012E0000CED00E0064900F0070208684FF6FF0326
:1012F000184040EA0220034A10430860704700008B
:101300000CED00E00000FA052DE9F0470F4605005E
:1013100061D0434E306800F00700B84209D230680F
:1013200020F0070038433060306800F00700B84212
:1013300051D128683B4C810712D5400703D560681E
:1013400040F4E06060602878000703D5606840F4EE
:10135000605060606068A96820F0F0000843606039
:101360002878C00728D06868012810D02168022892
:1013700010D0890700292EDA616821F003010143AA
:101380006160FFF723FF804641F288390DE0216854
:101390008903EFE78901EDE7FFF718FFA0EB0801EC
:1013A000494502D90320BDE8F0876068696800F00C
:1013B0000C00B0EB810FEFD1306800F00700B842AD
:1013C0000BD9306820F0070038433060306800F0F7
:1013D0000700B84201D00120E5E72878400705D58D
:1013E0006068E96820F4E0600843606028780007DE
:1013F00006D56068296920F4605040EAC100606049
:1014000000F018F86168084AC1F30311515CC84044
:101410000649086006480068FFF7F8FE0020C2E7AA
:1014200000200240001002409E1900081400002015
:101430000C0000200E4A51680E4801F00C03042BEA
:1014400011D0082B0FD10C48C1F38343C903C05CF2
:101450000AD55168084AC1F34041921E515C054AC1
:101460005043B0FBF1F07047044948437047000017
:101470000010024000127A008E19000800093D0099
:101480002DE9F84F040070D02078C04DC00749D036
:101490006868C0F38100012807D06868C0F3810044
:1014A000022809D16868C00306D52868800339D5A9
:1014B00060680028E7D035E06068B0F5803F0BD069
:1014C00010B1B0F5A02F11D0286820F4803028602A
:1014D000286820F4802002E0286840F480302860EA
:1014E000606890B1FFF772FE06460AE0286840F493
:1014F00080202860F0E700BFFFF768FE801B6428AB
:1015000073D828688003F7D50CE0FFF75FFE064626
:1015100005E000BFFFF75AFE801B6428F0D828685A
:101520008003F7D420789A4E80074FF001094FF0DE
:10153000000839D5686810F00C0F07D06868C0F350
:101540008100022809D16868C00306D42868800792
:1015500014D52069012808D110E02069B0B1C6F87F
:101560000090FFF733FE074605E00AE1FFF72EFE85
:10157000C01B0228C4D828688007F7D5286861698D
:1015800020F0F80040EAC10028600DE0C6F80080B5
:10159000FFF71CFE074604E0FFF718FEC01B0228F9
:1015A00023D828688007F7D4207800072CD57948FD
:1015B000A169D9B1C0F80090FFF708FE074604E022
:1015C000FFF704FEC01B02280FD8686A8007F7D512
:1015D00071484FF4FA510068B0FBF1F0009000BF81
:1015E0000098411E0091FAD20EE080E0C0F8008021
:1015F000FFF7ECFD074604E0FFF7E8FDC01B0228FB
:1016000075D8686A8007F7D42078400760D5E86904
:101610000027C00008D4E86940F08050E861E8691C
:10162000012700F0805000905C480168C90513D480
:101630000168834641F480710160FFF7C7FD82466F
:1016400006E000BFFFF7C2FDA0EB0A0064284ED8F9
:10165000DBF80000C005F5D5E06801280AD008B124
:10166000052813D0286A20F001002862286A20F09B
:10167000040002E0286A40F001002862E06841F2BC
:10168000883B98B1FFF7A2FD82460BE0286A40F044
:1016900004002862EEE700BFFFF798FDA0EB0A0107
:1016A00059455AD8286A8007F6D50CE0FFF78EFD19
:1016B000824605E0FFF78AFDA0EB0A0159454CD8A8
:1016C000286A8007F6D41FB1E86920F08050E861ED
:1016D000E06988B36968C1F38101022944D0022816
:1016E000C6F8608004D0FFF771FD044638E034E0AE
:1016F000FFF76CFD074604E0FFF768FDC01B0228FA
:101700002BD828688001F7D4206AB0F5803F05D136
:101710006868A16820F4003008436860D4E90801D3
:101720000843696821F4741108436860C6F8609042
:10173000FFF74CFD044606E025E000BFFFF746FD3D
:10174000001B022809D828688001F7D51BE000BFDC
:10175000FFF73CFD001B022802D90320BDE8F88FEB
:1017600028688001F4D40EE00128F7D06868226A66
:1017700000F48031914204D1616A00F47010884213
:1017800001D00120EAE70020E8E700000010024055
:1017900000004242800442421400002000700040D9
:1017A00010B5401EB0F1807F01D3012010BD4FF075
:1017B000E02460610F21601700F08DF80020A06127
:1017C00007202061002010BDFEE70000144808B586
:1017D000416941F0010141614069124900F0010095
:1017E0000090114801604FF48041416040218160C8
:1017F0008021C16000210161416181614FF480510C
:10180000C161FFF757FC08B1FFF75CFB00221146EE
:101810000B20FFF747FDBDE808400B20FFF734BD64
:101820000010024008000240240000200D4808B5C6
:10183000816941F010018161816901F0100100911D
:10184000816941F020018161816901F020010091ED
:10185000816941F004018161806900F00400009019
:1018600008BD000000100240FEE7FEE77047704729
:10187000FFF7B2BC30B58FB028216846FEF72CFDCB
:1018800014210AA8FEF728FD01210804CDE9001063
:101890000024029402250491CDE907504FF4E01092
:1018A00009906846FFF7ECFD08B172B6FEE70F201D
:1018B000CDE90A054FF48060CDE90C4002210AA869
:1018C0000E94FFF721FD002801D072B6FEE70FB09D
:1018D00030BD7047FEE70907090E002804DB00F160
:1018E000E02080F80014704700F00F0000F1E020C5
:1018F00080F8141D7047000010B50348FFF7E4FAA4
:1019000002490120087010BD2400002000000020C2
:101910008A68002A01DCFEF7ACBE521E8A604A6863
:10192000C0B2531C4B60107070470000FFF75CFCA6
:10193000FFF7A0FFFFF77AFFFFF748FF0D4A0021EE
:101940000D48FFF7E5FB04230C4A0D490A48FFF751
:1019500004FC0A4E0027751E28780128FCD10024BB
:1019600008A0315DFEF73CFC641CE4B2042CF7D304
:101970002F70F1E7F9180008240000200100002072
:1019800088190008256409000A141E2801020203B0
:101990000405060708090A0B0C0D0E0F10100000B5
:1019A00000000000000001020304060708093A7461
:1019B00074003A7474003A7474000000DC19000872
:1019C000000000202400000028010008001A000880
:1019D00024000020A40700004401000800000000CB
:1019E00000000000010000001000000000000000E6
:1019F00000127A000000000000000000000000005B
:04000005080000ED02
:00000001FF
