:10014700EF4E600F7D027CEFDCFEDDFCEF1F70F0F1
:030157001E80ED1A
:01015A002282
:1000C6000000000000000000FF080808FF000E15F1
:1000D600151508007E0102007E0102000E11110EA8
:1000E600007D00000000000000000000000000008D
:06015B000108000109008B
:10008F00120162E4F50AE50A25089000C693FDAF58
:10009F000A120123050AE50AC3940840E90509E598
:1000AF0009D3940A40DDE4F5090508E508D394283F
:0700BF0040D1E4F50880CCFC
:05016200C2B6C2B52287
:0200F600AD0754
:1000F800E4FB74807E00A803088006CEA2E713CE36
:1001080013D8F8FFEDF582EF558224FF92B4D2B6EA
:0A011800C2B60BBB08DCD2B5C2B5BD
:0101220022BA
:10012300AE05AC07AF061200F6AF047480A807084B
:100133008002C313D8FCF4F5807F017E00120147CF
:040143007580FF22A2
:03000000020003F8
:0C000300787FE4F6D8FD75810A02004AFF
:10000F0002008FE493A3F8E493A34003F68001F278
:10001F0008DFF48029E493A3F85407240CC8C333F2
:10002F00C4540F4420C8834004F456800146F6DFC1
:10003F00E4800B010204081020408090015BE47EF5
:10004F00019360BCA3FF543F30E509541FFEE493B6
:10005F00A360010ECF54C025E060A840B8E493A37D
:10006F00FAE493A3F8E493A3C8C582C8CAC583CAA8
:10007F00F0A3C8C582C8CAC583CADFE9DEE780BE60
:01016100009D
:00000001FF
