:1007B300EF4E600F7D027CEFDCFEDDFCEF1F70F07F
:0307C3001E80EDA8
:0107C6002210
:0607EE00AE071FEE600BD8
:0B07F4007533021533E53360F180F827
:0107FF0022D7
:0607DB00AE071FEE600CEA
:0C07E100007534141534E53460F080F825
:0107ED0022E9
:06080000AE071FEE600BC5
:0B0806007535191535E53560F180F8F7
:0108110022C4
:10073A00D2B7C2B77FF7DFFED2B77F20DFFEA2B7FC
:0A074A00B3E433FE7FF7DFFEAF06D5
:010754002282
:10075500E4FEC2B77D04DDFEEF1392B7EFC313FFCE
:0A0765007D18DDFED2B70EBE08E8D5
:01076F002267
:1006DD00E4FFFEC2B77D02DDFED2B77D02DDFEEF87
:1006ED00C313FF30B7034307807D18DDFE0EBE0830
:0106FD00E21A
:0106FE0022D9
:1005630012073A7FCC1207557F441207557FE87E66
:10057300031207B312073A7FCC1207557FBE120747
:10058300551206DD8F131206DDEFFEE513FFFDACFA
:0F05930006EC120238E4FBFA7980784112010C71
:0105A2002236
:06081200C2A58F80D2A7F1
:080818007F027EEFDEFEDFFC33
:0108200022B5
:0A082D00C2A6120812C2A7020818A2
:1006FF00CFCDCFCECCCE1203317C007D0A12033189
:04070F00ED2430FFA6
:0A071300D2A6120812C2A7020818AD
:10078700AE07BE0104ED148006BE0209ED243F4406
:0607970080FF12082D2274
:1007C7007F3812082D7F0C12082D7F0612082D7F07
:0407D7000102082DE6
:0A083700AC03120787AF0402071399
:0606BA008B2D8A2E892F12
:1006C000120787E4FDAB2DAA2EA92F8D827583001A
:0C06D0001202F2FF60061207130D80E911
:0106DC0022FB
:0C0687007F0AEA24FFFDE434FFFC7E0043
:080693008E188F198C1A8D1BC3
:10069B007F017E00E4FBEBC3951BE51A6480F874C5
:0E06AB008098500AAC18AD1912031F0B80E89E
:0106B900221E
:04071D008A158B1698
:10072100120787AA17EAD39400400D120687AC1569
:08073100AD161206FF1A80ED5F
:01073900229D
:1005A300120787C3EA64809480400B7F2B120713E2
:1005B3008A218B22800E7F2D120713C3E49BF52221
:1005C300E49AF521AA20EAD39400400D120687ACE1
:0905D30021AD221206FF1A80ED91
:0105DC0022FC
:0405DD008A258B26BA
:1005E100120787AA27EAD3940040297F10120689AF
:1005F100AC25AD26CFCDCFCECCCE120331EF540FEB
:10060100FEC3940AEE5004243080022437FF1207FF
:04061100131A80D167
:0106150022C2
:04064F008A2A8B2B3D
:10065300120787AA2CEAD394004028EA24FFFDE47A
:1006630034FFFC7F027E00120693AC2AAD2BCFCD64
:10067300CFCECCCE120331EF54012430FF12071337
:030683001A80D208
:010686002251
:100462001207C71205638F0C8E0B8D0A8C09E4FFED
:10047200FEFDFCAB0CAA0BA90AA8091201A9501E89
:100482007B2D7D037F01120837AF0CAE0BAD0AAC9A
:10049200091202228F118E108D0F8C0E80157B2B6C
:1004A2007D037F01120837850C11850B10850A0F19
:1004B20085090EAF11AE10AD0FAC0E120271AB0773
:1004C200AA067517037D047F0112071D7B2E7D0787
:1004D2007F01120837E4FFFE7DC87C42AB11AA10EF
:1004E200A90FA80E120003120271E47B64FAF9F854
:1004F2001203C27517027D087F0112071D020465EF
:100770005389F0438901758A18758CFCC28DD28C1F
:07078000D2A9D2AFC2B922D9
:10050200E4F53620B1137F14FE1207B330B1FD7F3C
:10051200147E001207B375360120B0147F147E00DA
:100522001207B330B0FD7F147E001207B375360296
:1005320020B2147F147E001207B330B2FD7F147E06
:10054200001207B375360320B3147F147E0012071E
:10055200B330B3FD7F147E001207B3753604AF3695
:010562002276
:10079D00E4FF20B1010F20B0027F0220B2027F03DF
:0507AD0020B3027F04EF
:0107B2002224
:1006160085303112079D8F30E531B40107E5307022
:1006260003753201E531B40207E530700375320215
:10063600E531B40307E5307003753203E531B404E0
:0806460007E530700375320472
:01064E002289
:10000300EC4D6011E8497017ED33EC3304600DE4F7
:10001300FCFFFEFD22E933E8330470F80202DD122F
:1000230002A858046009E4CC248150062850090230
:1000330002E72840030202E4C0E0EB4A7044B980BF
:1000430006D0E0FB0202D3EF4E701CBD8008EBFF2D
:10005300EAFEE9FD80EBE98DF0A4FEE5F00200EC99
:10006300E9CDF9EAFEEBFFEF89F0A4FCE5F0CE89D8
:10007300F0A42EFFE435F0CD89F0A42DFEE435F095
:100083008067EF4E7005BD80D780C3EF8BF0A4ACC3
:10009300F0EE8BF0A42CFCE435F0F8EF8AF0A42CFE
:1000A300E5F038FCE433CB8DF0A42CFCE5F03BF811
:1000B300EE8AF0A42CFCE5F038F8E433CF89F0A401
:1000C3002CFCE5F038CF3400CE89F0A42FFFE5F007
:1000D3003EFEE433C98DF0A42EFEE5F039CD8AF05F
:1000E300A42FFFE5F03EFEE43DFD33D0E0FB5007D7
:1000F3000BBB000F0202E7EC2CFCEF33FFEE33FEE9
:06010300ED33FD0202BF16
:100109000202E7EC5D046005E8590470030202DDB0
:100119001202A8580460F6EC4860F2EC7004FDFE87
:10012900FF22C860DB2481C85009C39860025006C9
:100139000202E49850CAF582E9294B4A7005AB825C
:100149000202D375F0007C1A7880C3EF9BEE9AED1A
:1001590099400DC3EF9BFFEE9AFEED99FDE842F041
:10016900DC23ACF0D0E0FFD0E0FED0E0FDAB822094
:10017900E7101BEB60BAEC2CFCEF33FFEE33FEED1E
:1001890033FD0202BFE803F830E705C0F075F0005F
:10019900EF2FFFEE33FEED33FD40B830E7C280AA02
:1001A90074F8CC6480CCC86480C8F58204604FC3FD
:1001B900EB9FF5F0EA9E42F0E99D42F0E89C45F09C
:1001C900603C501DE5825FFFE582D313CB5BCBF426
:1001D9002B5582FB50280ABA002409B9002008804F
:1001E9001DE5825BFBE582D313CF5FCFF4C3132FE9
:1001F9005582FF50090EBE00050DBD00010CC3EB71
:100209009FF5F0EA9E42F0E99D42F0E89C45F060D6
:0902190007CC4820E701B3EC22F8
:10022200ED33EC33600A047003BD8004ECB2E7FCEA
:0102320022A9
:1002330075F020800E75F010800575F0087D007E46
:10024300007F003392D530D503120454EC334010B1
:10025300EF33FFEE33FEED33FDEC33FCD5F0ED224F
:0E026300E5F0247EA2D513CC92E7CDCEFF228B
:10027100EDD2E7CD33EC3392D524814006E4FFFE85
:10028100FDFC22FCE4CFCECDCC24E0501174FF80E4
:10029100EDC3CC13CCCD13CDCE13CECF13CF047081
:0702A100F030D5DE02045429
:1002A800E9D2E7C933E833F892D5EDD2E7CD33EC9C
:0702B80033FC5002B2D52215
:1002BF00EC30E7100FBF000C0EBE00080DBD0004A0
:1002CF000BEB6014A2D5EB13FCED92E7FD2274FF4C
:1002DF00FCFDFEFF22E480F8A2D574FF13FC7D80A5
:0302EF00E480EFB9
:03000000020821D2
:0C082100787FE4F6D8FD75813602046291
:1002F200BB010CE58229F582E5833AF583E02250C1
:1003020006E92582F8E622BBFE06E92582F8E2220A
:0D031200E58229F582E5833AF583E4932224
:10031F00EF8DF0A4A8F0CF8CF0A428CE8DF0A42EF2
:02032F00FE22AC
:10033100BC000BBE0029EF8DF084FFADF022E4CCB0
:10034100F875F008EF2FFFEE33FEEC33FCEE9DEC79
:10035100984005FCEE9DFE0FD5F0E9E4CEFD22EDBF
:10036100F8F5F0EE8420D21CFEADF075F008EF2F09
:10037100FFED33FD4007985006D5F0F222C398FDFA
:050381000FD5F0EA2297
:1003860075F008758200EF2FFFEE33FECD33CDCC2E
:1003960033CCC58233C5829BED9AEC99E5829840B1
:1003A6000CF582EE9BFEED9AFDEC99FC0FD5F0D68E
:1003B600E4CEFBE4CDFAE4CCF9A88222B800C1B9B8
:1003C6000059BA002DEC8BF084CFCECDFCE5F0CBF6
:1003D600F97818EF2FFFEE33FEED33FDEC33FCEB2F
:1003E60033FB10D703994004EB99FB0FD8E5E4F9EA
:1003F600FA227818EF2FFFEE33FEED33FDEC33FCD7
:10040600C933C910D7059BE99A4007EC9BFCE99ACA
:10041600F90FD8E0E4C9FAE4CCFB2275F010EF2F0F
:10042600FFEE33FEED33FDCC33CCC833C810D7070F
:100436009BEC9AE899400AED9BFDEC9AFCE899F84A
:0E0446000FD5F0DAE4CDFBE4CCFAE4C8F922DD
:0E045400C3E49FFFE49EFEE49DFDE49CFC22B9
:00000001FF
